{
  "contractName": "AirHodl",
  "abi": [
    {
      "constant": true,
      "inputs": [],
      "name": "VESTING_PERIOD",
      "outputs": [
        {
          "name": "",
          "type": "uint256"
        }
      ],
      "payable": false,
      "stateMutability": "view",
      "type": "function"
    },
    {
      "constant": true,
      "inputs": [],
      "name": "totalSupply",
      "outputs": [
        {
          "name": "",
          "type": "uint256"
        }
      ],
      "payable": false,
      "stateMutability": "view",
      "type": "function"
    },
    {
      "constant": true,
      "inputs": [],
      "name": "version",
      "outputs": [
        {
          "name": "",
          "type": "string"
        }
      ],
      "payable": false,
      "stateMutability": "view",
      "type": "function"
    },
    {
      "constant": true,
      "inputs": [
        {
          "name": "",
          "type": "address"
        }
      ],
      "name": "balanceOf",
      "outputs": [
        {
          "name": "",
          "type": "uint256"
        }
      ],
      "payable": false,
      "stateMutability": "view",
      "type": "function"
    },
    {
      "constant": false,
      "inputs": [],
      "name": "acceptOwnership",
      "outputs": [],
      "payable": false,
      "stateMutability": "nonpayable",
      "type": "function"
    },
    {
      "constant": true,
      "inputs": [],
      "name": "owner",
      "outputs": [
        {
          "name": "",
          "type": "address"
        }
      ],
      "payable": false,
      "stateMutability": "view",
      "type": "function"
    },
    {
      "constant": true,
      "inputs": [],
      "name": "newOwner",
      "outputs": [
        {
          "name": "",
          "type": "address"
        }
      ],
      "payable": false,
      "stateMutability": "view",
      "type": "function"
    },
    {
      "constant": true,
      "inputs": [],
      "name": "vestingPoint",
      "outputs": [
        {
          "name": "",
          "type": "uint256"
        }
      ],
      "payable": false,
      "stateMutability": "view",
      "type": "function"
    },
    {
      "constant": false,
      "inputs": [
        {
          "name": "_newOwner",
          "type": "address"
        }
      ],
      "name": "transferOwnership",
      "outputs": [],
      "payable": false,
      "stateMutability": "nonpayable",
      "type": "function"
    },
    {
      "constant": true,
      "inputs": [],
      "name": "relayToken",
      "outputs": [
        {
          "name": "",
          "type": "address"
        }
      ],
      "payable": false,
      "stateMutability": "view",
      "type": "function"
    },
    {
      "inputs": [
        {
          "name": "_relayToken",
          "type": "address"
        }
      ],
      "payable": false,
      "stateMutability": "nonpayable",
      "type": "constructor"
    },
    {
      "anonymous": false,
      "inputs": [
        {
          "indexed": true,
          "name": "_prevOwner",
          "type": "address"
        },
        {
          "indexed": true,
          "name": "_newOwner",
          "type": "address"
        }
      ],
      "name": "OwnerUpdate",
      "type": "event"
    },
    {
      "constant": false,
      "inputs": [
        {
          "name": "_to",
          "type": "address[]"
        },
        {
          "name": "_value",
          "type": "uint256[]"
        }
      ],
      "name": "mint",
      "outputs": [],
      "payable": false,
      "stateMutability": "nonpayable",
      "type": "function"
    },
    {
      "constant": false,
      "inputs": [
        {
          "name": "_value",
          "type": "uint256"
        }
      ],
      "name": "claim",
      "outputs": [],
      "payable": false,
      "stateMutability": "nonpayable",
      "type": "function"
    }
  ],
  "bytecode": "0x60c0604052600360808190527f302e31000000000000000000000000000000000000000000000000000000000060a090815261003e9160029190610093565b5034801561004b57600080fd5b50604051602080610a6183398101604052516000805433600160a060020a03199182161790915560038054909116600160a060020a039092169190911790554260045561012e565b828054600181600116156101000203166002900490600052602060002090601f016020900481019282601f106100d457805160ff1916838001178555610101565b82800160010185558215610101579182015b828111156101015782518255916020019190600101906100e6565b5061010d929150610111565b5090565b61012b91905b8082111561010d5760008155600101610117565b90565b6109248061013d6000396000f3006080604052600436106100b95763ffffffff7c01000000000000000000000000000000000000000000000000000000006000350416630197d97281146100be57806318160ddd146100e5578063379607f5146100fa57806354fd4d501461011457806370a082311461019e57806379ba5097146101bf5780638da5cb5b146101d4578063d4ee1d9014610205578063e467f7e01461021a578063eedcf04e14610246578063f2fde38b1461025b578063f4bf3db31461027c575b600080fd5b3480156100ca57600080fd5b506100d3610291565b60408051918252519081900360200190f35b3480156100f157600080fd5b506100d3610299565b34801561010657600080fd5b5061011260043561029f565b005b34801561012057600080fd5b50610129610535565b6040805160208082528351818301528351919283929083019185019080838360005b8381101561016357818101518382015260200161014b565b50505050905090810190601f1680156101905780820380516001836020036101000a031916815260200191505b509250505060405180910390f35b3480156101aa57600080fd5b506100d3600160a060020a03600435166105c0565b3480156101cb57600080fd5b506101126105d2565b3480156101e057600080fd5b506101e961065a565b60408051600160a060020a039092168252519081900360200190f35b34801561021157600080fd5b506101e9610669565b34801561022657600080fd5b506101126024600480358281019290820135918135918201910135610678565b34801561025257600080fd5b506100d3610814565b34801561026757600080fd5b50610112600160a060020a036004351661081a565b34801561028857600080fd5b506101e961087b565b6303c2670081565b60055481565b33600090815260066020526040812054819081908190819086111561030e576040805160e560020a62461bcd02815260206004820152601460248201527f696e73756666696369656e742062616c616e6365000000000000000000000000604482015290519081900360640190fd5b600454420394506303c26700851115610329576303c2670094505b600354604080517f70a082310000000000000000000000000000000000000000000000000000000081523060048201529051600160a060020a03909216916370a08231916024808201926020929091908290030181600087803b15801561038f57600080fd5b505af11580156103a3573d6000803e3d6000fd5b505050506040513d60208110156103b957600080fd5b505193506103cd858563ffffffff61088a16565b92506103e86005546303c2670061088a90919063ffffffff16565b600354909250600160a060020a031663a9059cbb3361041d856104118b8963ffffffff61088a16565b9063ffffffff6108c316565b6040518363ffffffff167c01000000000000000000000000000000000000000000000000000000000281526004018083600160a060020a0316600160a060020a0316815260200182815260200192505050602060405180830381600087803b15801561048857600080fd5b505af115801561049c573d6000803e3d6000fd5b505050506040513d60208110156104b257600080fd5b5051905080151561050d576040805160e560020a62461bcd02815260206004820152601060248201527f7472616e73666572206661696c75726500000000000000000000000000000000604482015290519081900360640190fd5b5050336000908152600660205260409020805485900390555050600580549290920390915550565b6002805460408051602060018416156101000260001901909316849004601f810184900484028201840190925281815292918301828280156105b85780601f1061058d576101008083540402835291602001916105b8565b820191906000526020600020905b81548152906001019060200180831161059b57829003601f168201915b505050505081565b60066020526000908152604090205481565b600154600160a060020a031633146105e957600080fd5b60015460008054604051600160a060020a0393841693909116917f343765429aea5a34b3ff6a3785a98a5abb2597aca87bfbb58632c173d585373a91a3600180546000805473ffffffffffffffffffffffffffffffffffffffff19908116600160a060020a03841617909155169055565b600054600160a060020a031681565b600154600160a060020a031681565b600080548190600160a060020a0316331461069257600080fd5b8491508282146106ec576040805160e560020a62461bcd02815260206004820152601a60248201527f6c697374206c656e6774687320617265206e6f7420657175616c000000000000604482015290519081900360640190fd5b5060005b8181101561080c576006600087878481811061070857fe5b90506020020135600160a060020a0316600160a060020a0316600160a060020a03168152602001908152602001600020546000141515610792576040805160e560020a62461bcd02815260206004820152601360248201527f7573657220616c72656164792065786973747300000000000000000000000000604482015290519081900360640190fd5b83838281811061079e57fe5b905060200201356006600088888581811015156107b757fe5b60209081029290920135600160a060020a0316835250810191909152604001600020556108018484838181106107e957fe5b905060200201356005546108e690919063ffffffff16565b6005556001016106f0565b505050505050565b60045481565b600054600160a060020a0316331461083157600080fd5b600054600160a060020a038281169116141561084c57600080fd5b6001805473ffffffffffffffffffffffffffffffffffffffff1916600160a060020a0392909216919091179055565b600354600160a060020a031681565b60008083151561089d57600091506108bc565b508282028284828115156108ad57fe5b04146108b857600080fd5b8091505b5092915050565b6000808083116108d257600080fd5b82848115156108dd57fe5b04949350505050565b6000828201838110156108b857600080fd00a165627a7a723058206d07ca166131c31bf6d1bb42282c4aaae0dd57786745926534c6c630b0ca43110029",
  "source": "pragma solidity ^0.4.24;\nimport './utility/Owned.sol';\nimport './utility/SafeMath.sol';\nimport './token/interfaces/ISmartToken.sol';\n\ncontract AirHodl is Owned {\n    using SafeMath for uint256;\n\n    string public version = '0.1';\n\n    ISmartToken public relayToken;\n    uint256 public vestingPoint;\n    uint256 public totalSupply;\n    mapping (address => uint256) public balanceOf;\n\n    uint256 public constant VESTING_PERIOD = 60 * 60 * 24 * 365 * 2; // number of seconds in two years\n\n    constructor(ISmartToken _relayToken) public {\n        relayToken = _relayToken;\n        vestingPoint = now;\n    }\n\n    function mint(address[] _to, uint256[] _value) external ownerOnly {\n        uint256 length = _to.length;\n        require(length == _value.length, \"list lengths are not equal\");\n        for (uint256 i = 0; i < length; i++) {\n            require(balanceOf[_to[i]] == 0, \"user already exists\");\n            balanceOf[_to[i]] = _value[i];\n            totalSupply = totalSupply.add(_value[i]);\n        }\n    }\n\n    function claim(uint256 _value) external {\n        require(_value <= balanceOf[msg.sender], \"insufficient balance\");\n        uint256 vestingPeriod = now - vestingPoint;\n        if (vestingPeriod > VESTING_PERIOD)\n            vestingPeriod = VESTING_PERIOD;\n        uint256 totalReserve = relayToken.balanceOf(address(this));\n        uint256 n = vestingPeriod.mul(totalReserve);\n        uint256 d = VESTING_PERIOD.mul(totalSupply);\n        bool success = relayToken.transfer(msg.sender, _value.mul(n).div(d));\n        require(success, \"transfer failure\");\n        balanceOf[msg.sender] -= _value;\n        totalSupply -= _value;\n    }\n}\n",
  "sourcePath": "/Users/Nick/WebstormProjects/BancorOriginal/solidity/contracts/AirHodl.sol",
  "compiler": {
    "name": "solc",
    "version": "0.4.24+commit.e67f0147.Emscripten.clang"
  },
  "schemaVersion": "3.0.16",
  "updatedAt": "2019-12-04T00:14:08.090Z",
  "devdoc": {
    "methods": {
      "acceptOwnership()": {
        "details": "used by a new owner to accept an ownership transfer"
      },
      "transferOwnership(address)": {
        "details": "allows transferring the contract ownership the new owner still needs to accept the transfer can only be called by the contract owner",
        "params": {
          "_newOwner": "new contract owner"
        }
      }
    }
  },
  "userdoc": {
    "methods": {}
  }
}