{
  "contractName": "BancorConverterFactory",
  "abi": [
    {
      "inputs": [],
      "payable": false,
      "stateMutability": "nonpayable",
      "type": "constructor"
    },
    {
      "anonymous": false,
      "inputs": [
        {
          "indexed": true,
          "name": "_converter",
          "type": "address"
        },
        {
          "indexed": true,
          "name": "_owner",
          "type": "address"
        }
      ],
      "name": "NewConverter",
      "type": "event"
    },
    {
      "constant": false,
      "inputs": [
        {
          "name": "_token",
          "type": "address"
        },
        {
          "name": "_registry",
          "type": "address"
        },
        {
          "name": "_maxConversionFee",
          "type": "uint32"
        },
        {
          "name": "_connectorToken",
          "type": "address"
        },
        {
          "name": "_connectorWeight",
          "type": "uint32"
        }
      ],
      "name": "createConverter",
      "outputs": [
        {
          "name": "converterAddress",
          "type": "address"
        }
      ],
      "payable": false,
      "stateMutability": "nonpayable",
      "type": "function"
    }
  ],
  "bytecode": "0x608060405234801561001057600080fd5b5061535c806100206000396000f3006080604052600436106100405763ffffffff7c0100000000000000000000000000000000000000000000000000000000600035041663034efaeb8114610045575b600080fd5b34801561005157600080fd5b5061008f73ffffffffffffffffffffffffffffffffffffffff60043581169060243581169063ffffffff6044358116916064351690608435166100b8565b6040805173ffffffffffffffffffffffffffffffffffffffff9092168252519081900360200190f35b600080600087878787876100ca61028c565b73ffffffffffffffffffffffffffffffffffffffff9586168152938516602085015263ffffffff9283166040808601919091529190941660608401529216608082015290519081900360a001906000f08015801561012c573d6000803e3d6000fd5b50604080517ff2fde38b000000000000000000000000000000000000000000000000000000008152336004820152905191935073ffffffffffffffffffffffffffffffffffffffff84169163f2fde38b9160248082019260009290919082900301818387803b15801561019e57600080fd5b505af11580156101b2573d6000803e3d6000fd5b5050604080517fe4edf852000000000000000000000000000000000000000000000000000000008152336004820152905173ffffffffffffffffffffffffffffffffffffffff8616935063e4edf8529250602480830192600092919082900301818387803b15801561022357600080fd5b505af1158015610237573d6000803e3d6000fd5b505060405184935033925073ffffffffffffffffffffffffffffffffffffffff841691507fb54eb8f70476910bea510b4ca1ece1fdb11eeb345b0d46221dd40ba86e64953390600090a3979650505050505050565b6040516150948061029d8339019056006004805460a060020a61ffff021916740d000000000000000000000000000000000000000017905560c0604052600660808190527f62616e636f72000000000000000000000000000000000000000000000000000060a090815262000068916005919062000593565b506006805461ff001960ff19909116600117169055600b80546001606860020a0319166c01000000000000000000000000179055348015620000a957600080fd5b5060405160a080620050948339810160409081528151602083015191830151606084015160809094015160008054600160a060020a03191633178155929491928580600160a060020a03811615156200010157600080fd5b5060028054600160a060020a03928316600160a060020a03199182161790915560038054909116331790558590811615156200013c57600080fd5b8460008163ffffffff16101580156200015e5750620f424063ffffffff821611155b15156200016a57600080fd5b60078054600160a060020a031916600160a060020a0389811691821792839055600680546201000060b060020a0319166201000090930292909217909155604080517fbb34534c0000000000000000000000000000000000000000000000000000000081527f436f6e747261637446656174757265730000000000000000000000000000000060048201529051929091169163bb34534c916024808201926020929091908290030181600087803b1580156200022557600080fd5b505af11580156200023a573d6000803e3d6000fd5b505050506040513d60208110156200025157600080fd5b50519250600160a060020a03831615620002e857604080517f2c7077c000000000000000000000000000000000000000000000000000000000815260016004820181905260248201529051600160a060020a03851691632c7077c091604480830192600092919082900301818387803b158015620002ce57600080fd5b505af1158015620002e3573d6000803e3d6000fd5b505050505b600b805467ffffffff00000000191664010000000063ffffffff891602179055600160a060020a038516156200032f576200032f858560006401000000006200033d810204565b505050505050505062000638565b600054600160a060020a031633146200035557600080fd5b600254604080517f8da5cb5b00000000000000000000000000000000000000000000000000000000815290513092600160a060020a031691638da5cb5b9160048083019260209291908290030181600087803b158015620003b557600080fd5b505af1158015620003ca573d6000803e3d6000fd5b505050506040513d6020811015620003e157600080fd5b5051600160a060020a03161415620003f857600080fd5b82600160a060020a03811615156200040f57600080fd5b83600160a060020a0381163014156200042757600080fd5b8360008163ffffffff16118015620004485750620f424063ffffffff821611155b15156200045457600080fd5b600254600160a060020a03878116911614801590620004995750600160a060020a0386166000908152600a60205260409020600101546601000000000000900460ff16155b8015620004b85750600b54620f424063ffffffff918216870190911611155b1515620004c457600080fd5b505050600160a060020a039092166000818152600a602052604081208181556001908101805466ff0000000000001965ff0000000000199715156401000000000264ff000000001963ffffffff808a1663ffffffff19958616179190911691909117989098166501000000000017166601000000000000179091556009805492830181559092527f6e1540171b6c0c960b71a7020d9f60077f6af931a8bbf590da0223dacf75c7af018054600160a060020a031916909217909155600b80548085169093019093169116179055565b828054600181600116156101000203166002900490600052602060002090601f016020900481019282601f10620005d657805160ff191683800117855562000606565b8280016001018555821562000606579182015b8281111562000606578251825591602001919060010190620005e9565b506200061492915062000618565b5090565b6200063591905b808211156200061457600081556001016200061f565b90565b614a4c80620006486000396000f3006080604052600436106102f25763ffffffff60e060020a6000350416630c87355e81146102f75780630ca789231461031e5780630e53aae91461035257806319b64015146103a75780631d000b61146103db5780631e1401f8146103f057806320d7d3671461043357806321e6b53d1461045c578063227425641461047d578063228d2820146104e557806325f9bfef146104ff5780632a2e2f0c1461051457806338a5e016146105415780633aa0145a146105565780633e8ff43f146105745780633f4d2fc2146105fe578063415f12401461062d57806341a5b33d14610645578063429060291461066f578063481c6a751461068457806349d10b64146106995780634af80f0e146106ae57806350057351146106cf57806354fd4d5014610744578063579cd3ca146107705780635a46f06c1461079e5780635e35359e146107b35780635e5144eb146107dd57806361cd756e1461080a57806362614ae61461081f5780636d7bd3fc1461083457806371f52bf31461084957806372b44b2c1461085e57806375892cf11461088257806379ba5097146108af5780637b103999146108c457806383315b6e146108d957806385d5e631146108ee5780638b34839f146109085780638da5cb5b1461091d5780638e3047e0146109325780639232494e1461095c5780639249993a1461097157806392d1abb71461098657806394c275ad1461099b5780639e568553146109b0578063a2c4c336146109d6578063ad374f5b146109fa578063b4a176d314610a14578063bf75455814610a29578063c45d3d9214610a3e578063c4a8598e14610a53578063c8c2fe6c14610a68578063ca1d209d14610a7d578063cc97b38f14610a95578063d4ee1d9014610aaa578063d55ec69714610abf578063d895951214610ad4578063e4edf85214610af5578063ecbca55d14610b16578063f0843ba914610b34578063f2fde38b14610b85578063f5286b9c14610ba6578063fa1c594e14610bbb578063fc0c546a14610bd5578063fe417fa514610bea575b600080fd5b34801561030357600080fd5b5061030c610c0e565b60408051918252519081900360200190f35b34801561032a57600080fd5b50610350600160a060020a036004351663ffffffff602435166044351515606435610c20565b005b34801561035e57600080fd5b50610373600160a060020a0360043516610d33565b6040805195865263ffffffff9094166020860152911515848401521515606084015215156080830152519081900360a00190f35b3480156103b357600080fd5b506103bf600435610d79565b60408051600160a060020a039092168252519081900360200190f35b3480156103e757600080fd5b5061030c610da1565b3480156103fc57600080fd5b5061041a600160a060020a0360043581169060243516604435610dc5565b6040805192835260208301919091528051918290030190f35b34801561043f57600080fd5b50610448610e42565b604080519115158252519081900360200190f35b34801561046857600080fd5b50610350600160a060020a0360043516610e4b565b6040805160206004803580820135838102808601850190965280855261030c95369593946024949385019291829185019084908082843750949750508435955050506020830135926040810135925060ff606082013516915060808101359060a00135610f15565b3480156104f157600080fd5b5061035060043515156111f3565b34801561050b57600080fd5b5061030c6112b2565b34801561052057600080fd5b5061030c600160a060020a03600435811690602435166044356064356112d6565b34801561054d57600080fd5b506103506116a1565b34801561056257600080fd5b5061030c60043560ff60243516611725565b34801561058057600080fd5b5061058961178f565b6040805160208082528351818301528351919283929083019185019080838360005b838110156105c35781810151838201526020016105ab565b50505050905090810190601f1680156105f05780820380516001836020036101000a031916815260200191505b509250505060405180910390f35b34801561060a57600080fd5b50610350600160a060020a036004351663ffffffff60243516604435151561181d565b34801561063957600080fd5b50610350600435611a67565b34801561065157600080fd5b50610350600160a060020a0360043581169060243516604435611c83565b34801561067b57600080fd5b506103bf611d24565b34801561069057600080fd5b506103bf611d33565b3480156106a557600080fd5b50610350611d42565b3480156106ba57600080fd5b50610350600160a060020a0360043516611e89565b3480156106db57600080fd5b506040805160206004803580820135838102808601850190965280855261030c95369593946024949385019291829185019084908082843750949750508435955050506020830135926040810135925060ff606082013516915060808101359060a00135611eda565b34801561075057600080fd5b5061075961237e565b6040805161ffff9092168252519081900360200190f35b34801561077c57600080fd5b506107856123a0565b6040805163ffffffff9092168252519081900360200190f35b3480156107aa57600080fd5b5061030c6123b8565b3480156107bf57600080fd5b50610350600160a060020a03600435811690602435166044356123dc565b3480156107e957600080fd5b5061030c600160a060020a036004358116906024351660443560643561255d565b34801561081657600080fd5b506103bf612574565b34801561082b57600080fd5b5061030c612589565b34801561084057600080fd5b5061030c6125ad565b34801561085557600080fd5b506107596125bf565b34801561086a57600080fd5b5061041a600160a060020a03600435166024356125c6565b34801561088e57600080fd5b5061030c600160a060020a03600435811690602435166044356064356128aa565b3480156108bb57600080fd5b5061035061294b565b3480156108d057600080fd5b506103bf6129c6565b3480156108e557600080fd5b5061030c6129d5565b3480156108fa57600080fd5b5061035060043515156129f9565b34801561091457600080fd5b50610448612a92565b34801561092957600080fd5b506103bf612aa0565b34801561093e57600080fd5b5061041a600160a060020a0360043581169060243516604435612aaf565b34801561096857600080fd5b5061030c612d6e565b34801561097d57600080fd5b5061030c612d80565b34801561099257600080fd5b5061030c612da4565b3480156109a757600080fd5b50610785612da9565b3480156109bc57600080fd5b50610350600160a060020a03600435166024351515612dbd565b3480156109e257600080fd5b5061041a600160a060020a0360043516602435612e45565b348015610a0657600080fd5b5061035060043515156130f6565b348015610a2057600080fd5b50610350613127565b348015610a3557600080fd5b50610448613181565b348015610a4a57600080fd5b506103bf61319a565b348015610a5f57600080fd5b5061030c6131a9565b348015610a7457600080fd5b506103506131cd565b348015610a8957600080fd5b5061035060043561324a565b348015610aa157600080fd5b5061030c613484565b348015610ab657600080fd5b506103bf6134a8565b348015610acb57600080fd5b506103506134b7565b348015610ae057600080fd5b5061030c600160a060020a03600435166135e5565b348015610b0157600080fd5b50610350600160a060020a03600435166136e9565b348015610b2257600080fd5b5061035063ffffffff60043516613754565b6040805160206004803580820135838102808601850190965280855261030c9536959394602494938501929182918501908490808284375094975050843595505050602090920135915061383b9050565b348015610b9157600080fd5b50610350600160a060020a036004351661384c565b348015610bb257600080fd5b5061030c6138a0565b348015610bc757600080fd5b5061035060043515156138c4565b348015610be157600080fd5b506103bf613904565b348015610bf657600080fd5b50610350600160a060020a0360043516602435613913565b6000805160206149e183398151915281565b60008054600160a060020a03163314610c3857600080fd5b600160a060020a0385166000908152600a602052604090206001015485906601000000000000900460ff161515610c6e57600080fd5b8460008163ffffffff16118015610c8e5750620f424063ffffffff821611155b1515610c9957600080fd5b600160a060020a0387166000908152600a602052604090206001810154600b54919450620f424063ffffffff918216928216929092038801161115610cdd57600080fd5b5050600181018054600b805463ffffffff928316818416038801831663ffffffff199182161790915582549515156401000000000264ff0000000019929097169516949094179390931693909317909155905550565b600a602052600090815260409020805460019091015463ffffffff81169060ff640100000000820481169165010000000000810482169166010000000000009091041685565b6009805482908110610d8757fe5b600091825260209091200154600160a060020a0316905081565b7f424e54546f6b656e00000000000000000000000000000000000000000000000081565b600080600160a060020a038581169085161415610de157600080fd5b600254600160a060020a0385811691161415610e0a57610e018584612e45565b91509150610e3a565b600254600160a060020a0386811691161415610e2a57610e0184846125c6565b610e35858585612aaf565b915091505b935093915050565b60065460ff1681565b600054600160a060020a03163314610e6257600080fd5b6007546040805160e260020a632ecd14d30281526000805160206149e183398151915260048201529051600092600160a060020a03169163bb34534c91602480830192602092919082900301818787803b158015610ebf57600080fd5b505af1158015610ed3573d6000803e3d6000fd5b505050506040513d6020811015610ee957600080fd5b5051600054909150600160a060020a03808316911614610f0857600080fd5b610f1182613aa5565b5050565b6000806000896000815181101515610f2957fe5b60209081029091018101516007546040805160e260020a632ecd14d30281526000805160206149c183398151915260048201529051929550600160a060020a039091169263bb34534c926024808401938290030181600087803b158015610f8f57600080fd5b505af1158015610fa3573d6000803e3d6000fd5b505050506040513d6020811015610fb957600080fd5b505190503415156110c957600254600160a060020a03838116911614156110bd576002546040805160e060020a63a24835d1028152336004820152602481018c90529051600160a060020a039092169163a24835d19160448082019260009290919082900301818387803b15801561103057600080fd5b505af1158015611044573d6000803e3d6000fd5b50506002546040805160e260020a63219e412d028152600160a060020a038681166004830152602482018f9052915191909216935063867904b49250604480830192600092919082900301818387803b1580156110a057600080fd5b505af11580156110b4573d6000803e3d6000fd5b505050506110c9565b6110c98233838c613b23565b80600160a060020a031663b406d386348c8c8c338f8e8e8e8e6040518b63ffffffff1660e060020a02815260040180806020018a815260200189815260200188600160a060020a0316600160a060020a031681526020018781526020018681526020018560ff1660ff1681526020018460001916600019168152602001836000191660001916815260200182810382528b818151815260200191508051906020019060200280838360005b8381101561118c578181015183820152602001611174565b505050509050019a50505050505050505050506020604051808303818588803b1580156111b857600080fd5b505af11580156111cc573d6000803e3d6000fd5b50505050506040513d60208110156111e357600080fd5b50519a9950505050505050505050565b600054600160a060020a03163314806112165750600354600160a060020a031633145b151561122157600080fd5b600b5460ff6c0100000000000000000000000090910416151581151514156112af57600b80546c01000000000000000000000000831581026cff000000000000000000000000199092169190911791829055604080519190920460ff161515815290517fb8e670608a57255ce4f35952b324cba70211a4200a91ce81d26e06d488c1f66b9181900360200190a15b50565b7f436f6e747261637452656769737472790000000000000000000000000000000081565b6007546040805160e260020a632ecd14d30281526000805160206149c183398151915260048201529051600092839283928392839283928392600160a060020a03169163bb34534c91602480830192602092919082900301818787803b15801561133f57600080fd5b505af1158015611353573d6000803e3d6000fd5b505050506040513d602081101561136957600080fd5b5051905033600160a060020a0382161461138257600080fd5b600b546c01000000000000000000000000900460ff1615156113a057fe5b87600081116113ae57600080fd5b600160a060020a038c8116908c1614156113c757600080fd5b600254600160a060020a038c8116911614156113ef576113e88c8b8b613eb2565b9750611692565b600254600160a060020a038d811691161415611410576113e88b8b8b61408c565b61141b8c8c8c612aaf565b9097509550861580159061142f5750888710155b151561143a57600080fd5b600160a060020a038c166000908152600a602052604090206001810154909550640100000000900460ff161561147f57845461147c908b63ffffffff6143b516565b85555b600160a060020a038b166000908152600a602052604090206001810154909450640100000000900460ff16156114c45783546114c1908863ffffffff6143d216565b84555b6114cd8b6135e5565b92508287106114d857fe5b6114e48c33308d613b23565b6114ef8b33896143e7565b6114fc8c8c8c8a8a614765565b8b600160a060020a0316600080516020614a01833981519152600260009054906101000a9004600160a060020a0316600160a060020a03166318160ddd6040518163ffffffff1660e060020a028152600401602060405180830381600087803b15801561156857600080fd5b505af115801561157c573d6000803e3d6000fd5b505050506040513d602081101561159257600080fd5b505161159d8f6135e5565b600189015460408051938452602084019290925263ffffffff1682820152519081900360600190a28a600160a060020a0316600080516020614a01833981519152600260009054906101000a9004600160a060020a0316600160a060020a03166318160ddd6040518163ffffffff1660e060020a028152600401602060405180830381600087803b15801561163157600080fd5b505af1158015611645573d6000803e3d6000fd5b505050506040513d602081101561165b57600080fd5b50516116668e6135e5565b600188015460408051938452602084019290925263ffffffff1682820152519081900360600190a28697505b50505050505050949350505050565b600054600160a060020a031633146116b857600080fd5b600260009054906101000a9004600160a060020a0316600160a060020a03166379ba50976040518163ffffffff1660e060020a028152600401600060405180830381600087803b15801561170b57600080fd5b505af115801561171f573d6000803e3d6000fd5b50505050565b60006117888260ff16620f42400a67ffffffffffffffff1661177c8460ff16600b60089054906101000a900463ffffffff1663ffffffff16620f4240030a67ffffffffffffffff16866147e990919063ffffffff16565b9063ffffffff61481716565b9392505050565b6005805460408051602060026001851615610100026000190190941693909304601f810184900484028201840190925281815292918301828280156118155780601f106117ea57610100808354040283529160200191611815565b820191906000526020600020905b8154815290600101906020018083116117f857829003601f168201915b505050505081565b600054600160a060020a0316331461183457600080fd5b600254604080517f8da5cb5b00000000000000000000000000000000000000000000000000000000815290513092600160a060020a031691638da5cb5b9160048083019260209291908290030181600087803b15801561189357600080fd5b505af11580156118a7573d6000803e3d6000fd5b505050506040513d60208110156118bd57600080fd5b5051600160a060020a031614156118d357600080fd5b82600160a060020a03811615156118e957600080fd5b83600160a060020a03811630141561190057600080fd5b8360008163ffffffff161180156119205750620f424063ffffffff821611155b151561192b57600080fd5b600254600160a060020a0387811691161480159061196f5750600160a060020a0386166000908152600a60205260409020600101546601000000000000900460ff16155b801561198d5750600b54620f424063ffffffff918216870190911611155b151561199857600080fd5b505050600160a060020a039092166000818152600a602052604081208181556001908101805466ff0000000000001965ff0000000000199715156401000000000264ff000000001963ffffffff808a1663ffffffff19958616179190911691909117989098166501000000000017166601000000000000179091556009805492830181559092527f6e1540171b6c0c960b71a7020d9f60077f6af931a8bbf590da0223dacf75c7af018054600160a060020a031916909217909155600b80548085169093019093169116179055565b600b546000908190819081908190819063ffffffff16620f424014611a8b57600080fd5b600260009054906101000a9004600160a060020a0316600160a060020a03166318160ddd6040518163ffffffff1660e060020a028152600401602060405180830381600087803b158015611ade57600080fd5b505af1158015611af2573d6000803e3d6000fd5b505050506040513d6020811015611b0857600080fd5b50516002546040805160e060020a63a24835d1028152336004820152602481018b90529051929850600160a060020a039091169163a24835d19160448082019260009290919082900301818387803b158015611b6357600080fd5b505af1158015611b77573d6000803e3d6000fd5b50505050600091505b60095461ffff83161015611c7a576009805461ffff8416908110611ba057fe5b600091825260209091200154600160a060020a03169450611bc0856135e5565b9350611bd68661177c898763ffffffff6147e916565b600160a060020a0386166000908152600a6020526040902060018101549194509150640100000000900460ff1615611c1d578054611c1a908463ffffffff6143d216565b81555b611c288533856143e7565b6001810154604080518989038152858703602082015263ffffffff9092168282015251600160a060020a03871691600080516020614a01833981519152919081900360600190a2600190910190611b80565b50505050505050565b600054600160a060020a03163314611c9a57600080fd5b600254604080517f5e35359e000000000000000000000000000000000000000000000000000000008152600160a060020a03868116600483015285811660248301526044820185905291519190921691635e35359e91606480830192600092919082900301818387803b158015611d1057600080fd5b505af1158015611c7a573d6000803e3d6000fd5b600454600160a060020a031681565b600354600160a060020a031681565b60065460009060ff1680611d605750600054600160a060020a031633145b1515611d6b57600080fd5b6007546040805160e260020a632ecd14d30281527f436f6e747261637452656769737472790000000000000000000000000000000060048201529051600160a060020a039092169163bb34534c916024808201926020929091908290030181600087803b158015611ddb57600080fd5b505af1158015611def573d6000803e3d6000fd5b505050506040513d6020811015611e0557600080fd5b5051600754909150600160a060020a03808316911614801590611e305750600160a060020a03811615155b1515611e3b57600080fd5b600780546006805475ffffffffffffffffffffffffffffffffffffffff00001916600160a060020a03808416620100000291909117909155600160a060020a03199091169216919091179055565b600054600160a060020a03163314611ea057600080fd5b80600160a060020a038116301415611eb757600080fd5b5060088054600160a060020a031916600160a060020a0392909216919091179055565b6007546040805160e260020a632ecd14d30281527f42616e636f72580000000000000000000000000000000000000000000000000060048201529051600092839283928392600160a060020a03169163bb34534c91602480830192602092919082900301818787803b158015611f4f57600080fd5b505af1158015611f63573d6000803e3d6000fd5b505050506040513d6020811015611f7957600080fd5b50516007546040805160e260020a632ecd14d30281526000805160206149c183398151915260048201529051929550600160a060020a039091169163bb34534c916024808201926020929091908290030181600087803b158015611fdc57600080fd5b505af1158015611ff0573d6000803e3d6000fd5b505050506040513d602081101561200657600080fd5b50516007546040805160e260020a632ecd14d30281527f424e54546f6b656e00000000000000000000000000000000000000000000000060048201529051929450600160a060020a039091169163bb34534c916024808201926020929091908290030181600087803b15801561207b57600080fd5b505af115801561208f573d6000803e3d6000fd5b505050506040513d60208110156120a557600080fd5b50518b51600160a060020a03909116908c9060009081106120c257fe5b60209081029091010151600160a060020a0316146120df57600080fd5b604080517faafd6b76000000000000000000000000000000000000000000000000000000008152600481018b90523360248201529051600160a060020a0385169163aafd6b769160448083019260209291908290030181600087803b15801561214757600080fd5b505af115801561215b573d6000803e3d6000fd5b505050506040513d602081101561217157600080fd5b50516002546040805160e060020a63a24835d1028152336004820152602481018490529051929350600160a060020a039091169163a24835d19160448082019260009290919082900301818387803b1580156121cc57600080fd5b505af11580156121e0573d6000803e3d6000fd5b50506002546040805160e260020a63219e412d028152600160a060020a03878116600483015260248201879052915191909216935063867904b49250604480830192600092919082900301818387803b15801561223c57600080fd5b505af1158015612250573d6000803e3d6000fd5b5050505081600160a060020a031663b406d3868c838d338e8e8e8e8e6040518a63ffffffff1660e060020a02815260040180806020018a815260200189815260200188600160a060020a0316600160a060020a031681526020018781526020018681526020018560ff1660ff1681526020018460001916600019168152602001836000191660001916815260200182810382528b818151815260200191508051906020019060200280838360005b838110156123165781810151838201526020016122fe565b505050509050019a5050505050505050505050602060405180830381600087803b15801561234357600080fd5b505af1158015612357573d6000803e3d6000fd5b505050506040513d602081101561236d57600080fd5b50519b9a5050505050505050505050565b60045474010000000000000000000000000000000000000000900461ffff1681565b600b5468010000000000000000900463ffffffff1681565b7f42616e636f72436f6e766572746572466163746f72790000000000000000000081565b6007546040805160e260020a632ecd14d30281526000805160206149e183398151915260048201529051600092600160a060020a03169163bb34534c91602480830192602092919082900301818787803b15801561243957600080fd5b505af115801561244d573d6000803e3d6000fd5b505050506040513d602081101561246357600080fd5b5051600160a060020a0385166000908152600a60205260409020600101549091506601000000000000900460ff16158061252f5750600254604080517f8da5cb5b00000000000000000000000000000000000000000000000000000000815290513092600160a060020a031691638da5cb5b9160048083019260209291908290030181600087803b1580156124f757600080fd5b505af115801561250b573d6000803e3d6000fd5b505050506040513d602081101561252157600080fd5b5051600160a060020a031614155b806125475750600054600160a060020a038281169116145b151561255257600080fd5b61171f84848461483a565b600061256b858585856112d6565b95945050505050565b600654620100009004600160a060020a031681565b7f424e54436f6e766572746572000000000000000000000000000000000000000081565b6000805160206149a183398151915281565b6009545b90565b60008060008060008060008030600160a060020a0316600260009054906101000a9004600160a060020a0316600160a060020a0316638da5cb5b6040518163ffffffff1660e060020a028152600401602060405180830381600087803b15801561262f57600080fd5b505af1158015612643573d6000803e3d6000fd5b505050506040513d602081101561265957600080fd5b5051600160a060020a03161461266e57600080fd5b600160a060020a038a166000908152600a60205260409020600101548a906601000000000000900460ff1615156126a457600080fd5b600160a060020a03808c166000908152600a6020908152604080832060025482517f18160ddd0000000000000000000000000000000000000000000000000000000081529251919c50909416936318160ddd93600480840194938390030190829087803b15801561271457600080fd5b505af1158015612728573d6000803e3d6000fd5b505050506040513d602081101561273e57600080fd5b5051955061274b8b6135e5565b6007546040805160e260020a632ecd14d30281526000805160206149a183398151915260048201529051929750600160a060020a039091169163bb34534c916024808201926020929091908290030181600087803b1580156127ac57600080fd5b505af11580156127c0573d6000803e3d6000fd5b505050506040513d60208110156127d657600080fd5b50516001880154604080517f49f9b0f7000000000000000000000000000000000000000000000000000000008152600481018a90526024810189905263ffffffff9092166044830152606482018d905251919550600160a060020a038616916349f9b0f7916084808201926020929091908290030181600087803b15801561285d57600080fd5b505af1158015612871573d6000803e3d6000fd5b505050506040513d602081101561288757600080fd5b50519250612896836001611725565b9b928c90039a509198505050505050505050565b60408051606081018252600160a060020a038087168252600254811660208301528516918101919091526000906128e590600c906003614917565b5061256b600c80548060200260200160405190810160405280929190818152602001828054801561293f57602002820191906000526020600020905b8154600160a060020a03168152600190910190602001808311612921575b5050505050848461383b565b600154600160a060020a0316331461296257600080fd5b60015460008054604051600160a060020a0393841693909116917f343765429aea5a34b3ff6a3785a98a5abb2597aca87bfbb58632c173d585373a91a36001805460008054600160a060020a0319908116600160a060020a03841617909155169055565b600754600160a060020a031681565b7f436f6e747261637446656174757265730000000000000000000000000000000081565b600054600160a060020a03163314612a1057600080fd5b600254604080517f1608f18f00000000000000000000000000000000000000000000000000000000815283151560048201529051600160a060020a0390921691631608f18f9160248082019260009290919082900301818387803b158015612a7757600080fd5b505af1158015612a8b573d6000803e3d6000fd5b5050505050565b600654610100900460ff1681565b600054600160a060020a031681565b600080600080600080600030600160a060020a0316600260009054906101000a9004600160a060020a0316600160a060020a0316638da5cb5b6040518163ffffffff1660e060020a028152600401602060405180830381600087803b158015612b1757600080fd5b505af1158015612b2b573d6000803e3d6000fd5b505050506040513d6020811015612b4157600080fd5b5051600160a060020a031614612b5657600080fd5b600160a060020a038a166000908152600a60205260409020600101548a906601000000000000900460ff161515612b8c57600080fd5b600160a060020a038a166000908152600a60205260409020600101548a906601000000000000900460ff161515612bc257600080fd5b600160a060020a038c81166000908152600a6020526040808220928e16825290206001820154919850965065010000000000900460ff161515612c0457600080fd5b6007546040805160e260020a632ecd14d30281526000805160206149a183398151915260048201529051600160a060020a039092169163bb34534c916024808201926020929091908290030181600087803b158015612c6257600080fd5b505af1158015612c76573d6000803e3d6000fd5b505050506040513d6020811015612c8c57600080fd5b50519450600160a060020a0385166365098bb3612ca88e6135e5565b60018a015463ffffffff16612cbc8f6135e5565b60018b01546040805163ffffffff87811660e060020a028252600482019690965293851660248501526044840192909252929092166064820152608481018e9052905160a48083019260209291908290030181600087803b158015612d2057600080fd5b505af1158015612d34573d6000803e3d6000fd5b505050506040513d6020811015612d4a57600080fd5b50519350612d59846002611725565b9c938d90039b50929950505050505050505050565b6000805160206149c183398151915281565b7f42616e636f7247617350726963654c696d69740000000000000000000000000081565b600181565b600b54640100000000900463ffffffff1681565b600054600160a060020a03163314612dd457600080fd5b600160a060020a0382166000908152600a602052604090206001015482906601000000000000900460ff161515612e0a57600080fd5b50600160a060020a03919091166000908152600a60205260409020600101805465ff0000000000191691156501000000000002919091179055565b60008060008060008060008030600160a060020a0316600260009054906101000a9004600160a060020a0316600160a060020a0316638da5cb5b6040518163ffffffff1660e060020a028152600401602060405180830381600087803b158015612eae57600080fd5b505af1158015612ec2573d6000803e3d6000fd5b505050506040513d6020811015612ed857600080fd5b5051600160a060020a031614612eed57600080fd5b600160a060020a038a166000908152600a60205260409020600101548a906601000000000000900460ff161515612f2357600080fd5b600160a060020a038b166000908152600a60205260409020600181015490975065010000000000900460ff161515612f5a57600080fd5b600260009054906101000a9004600160a060020a0316600160a060020a03166318160ddd6040518163ffffffff1660e060020a028152600401602060405180830381600087803b158015612fad57600080fd5b505af1158015612fc1573d6000803e3d6000fd5b505050506040513d6020811015612fd757600080fd5b50519550612fe48b6135e5565b6007546040805160e260020a632ecd14d30281526000805160206149a183398151915260048201529051929750600160a060020a039091169163bb34534c916024808201926020929091908290030181600087803b15801561304557600080fd5b505af1158015613059573d6000803e3d6000fd5b505050506040513d602081101561306f57600080fd5b50516001880154604080517f29a00e7c000000000000000000000000000000000000000000000000000000008152600481018a90526024810189905263ffffffff9092166044830152606482018d905251919550600160a060020a038616916329a00e7c916084808201926020929091908290030181600087803b15801561285d57600080fd5b600054600160a060020a0316331461310d57600080fd5b600680549115156101000261ff0019909216919091179055565b600054600160a060020a031633148061314a5750600354600160a060020a031633145b151561315557600080fd5b6006805460078054600160a060020a031916600160a060020a036201000084041617905560ff19169055565b600b546c01000000000000000000000000900460ff1681565b600854600160a060020a031681565b7f42616e636f72580000000000000000000000000000000000000000000000000081565b600454600160a060020a031633146131e457600080fd5b600454600354604051600160a060020a0392831692909116907fbe4cc281795971a471c980e842627a7f1ea3892ddfce8c5b6357cd2611c1973290600090a36004805460038054600160a060020a0319908116600160a060020a03841617909155169055565b600b546000908190819081908190819063ffffffff16620f42401461326e57600080fd5b600b546c01000000000000000000000000900460ff16151561328c57fe5b600260009054906101000a9004600160a060020a0316600160a060020a03166318160ddd6040518163ffffffff1660e060020a028152600401602060405180830381600087803b1580156132df57600080fd5b505af11580156132f3573d6000803e3d6000fd5b505050506040513d602081101561330957600080fd5b50519550600091505b60095461ffff8316101561340d576009805461ffff841690811061333257fe5b600091825260209091200154600160a060020a03169450613352856135e5565b93506133688661177c898763ffffffff6147e916565b600160a060020a0386166000908152600a6020526040902060018101549194509150640100000000900460ff16156133af5780546133ac908463ffffffff6143b516565b81555b6133bb85333086613b23565b600181015460408051888a018152868601602082015263ffffffff9092168282015251600160a060020a03871691600080516020614a01833981519152919081900360600190a2600190910190613312565b6002546040805160e260020a63219e412d028152336004820152602481018a90529051600160a060020a039092169163867904b49160448082019260009290919082900301818387803b15801561346357600080fd5b505af1158015613477573d6000803e3d6000fd5b5050505050505050505050565b7f42616e636f72585570677261646572000000000000000000000000000000000081565b600154600160a060020a031681565b60008054600160a060020a031633146134cf57600080fd5b6007546040805160e260020a632ecd14d30281526000805160206149e183398151915260048201529051600160a060020a039092169163bb34534c916024808201926020929091908290030181600087803b15801561352d57600080fd5b505af1158015613541573d6000803e3d6000fd5b505050506040513d602081101561355757600080fd5b505190506135648161384c565b80600160a060020a03166390f58c96600460149054906101000a900461ffff166040518263ffffffff1660e060020a028152600401808261ffff1661ffff168152602001915050600060405180830381600087803b1580156135c557600080fd5b505af11580156135d9573d6000803e3d6000fd5b505050506112af61294b565b600160a060020a0381166000908152600a6020526040812060010154819083906601000000000000900460ff16151561361d57600080fd5b600160a060020a0384166000908152600a602052604090206001810154909250640100000000900460ff166136de57604080517f70a082310000000000000000000000000000000000000000000000000000000081523060048201529051600160a060020a038616916370a082319160248083019260209291908290030181600087803b1580156136ad57600080fd5b505af11580156136c1573d6000803e3d6000fd5b505050506040513d60208110156136d757600080fd5b50516136e1565b81545b949350505050565b600054600160a060020a031633148061370c5750600354600160a060020a031633145b151561371757600080fd5b600354600160a060020a038281169116141561373257600080fd5b60048054600160a060020a031916600160a060020a0392909216919091179055565b600054600160a060020a03163314806137775750600354600160a060020a031633145b151561378257600080fd5b8060008163ffffffff16101580156137ae5750600b5463ffffffff640100000000909104811690821611155b15156137b957600080fd5b600b546040805163ffffffff6801000000000000000090930483168152918416602083015280517f81cd2ffb37dd237c0e4e2a3de5265fcf9deb43d3e7801e80db9f1ccfba7ee6009281900390910190a150600b805463ffffffff90921668010000000000000000026bffffffff000000000000000019909216919091179055565b60006136e184848484808080610f15565b600054600160a060020a0316331461386357600080fd5b600054600160a060020a038281169116141561387e57600080fd5b60018054600160a060020a031916600160a060020a0392909216919091179055565b7f4e6f6e5374616e64617264546f6b656e5265676973747279000000000000000081565b600054600160a060020a03163314806138e75750600354600160a060020a031633145b15156138f257600080fd5b6006805460ff19169115919091179055565b600254600160a060020a031681565b600654600090610100900460ff16151561392c57600080fd5b6007546040805160e260020a632ecd14d30281527f42616e636f72580000000000000000000000000000000000000000000000000060048201529051600160a060020a039092169163bb34534c916024808201926020929091908290030181600087803b15801561399c57600080fd5b505af11580156139b0573d6000803e3d6000fd5b505050506040513d60208110156139c657600080fd5b5051905033600160a060020a038216146139df57600080fd5b6002546040805160e060020a63a24835d1028152600160a060020a038681166004830152602482018690529151919092169163a24835d191604480830192600092919082900301818387803b158015613a3757600080fd5b505af1158015613a4b573d6000803e3d6000fd5b50506002546040805160e260020a63219e412d028152336004820152602481018790529051600160a060020a03909216935063867904b4925060448082019260009290919082900301818387803b158015611d1057600080fd5b600054600160a060020a03163314613abc57600080fd5b600254604080517ff2fde38b000000000000000000000000000000000000000000000000000000008152600160a060020a0384811660048301529151919092169163f2fde38b91602480830192600092919082900301818387803b158015612a7757600080fd5b6007546040805160e260020a632ecd14d30281527f4e6f6e5374616e64617264546f6b656e526567697374727900000000000000006004820152905160009283928392600160a060020a039092169163bb34534c9160248082019260209290919082900301818787803b158015613b9957600080fd5b505af1158015613bad573d6000803e3d6000fd5b505050506040513d6020811015613bc357600080fd5b5051604080517faeea10bd000000000000000000000000000000000000000000000000000000008152600160a060020a038a8116600483015291519295509085169163aeea10bd916024808201926020929091908290030181600087803b158015613c2d57600080fd5b505af1158015613c41573d6000803e3d6000fd5b505050506040513d6020811015613c5757600080fd5b505115613e0a5786600160a060020a03166370a08231866040518263ffffffff1660e060020a0281526004018082600160a060020a0316600160a060020a03168152602001915050602060405180830381600087803b158015613cb957600080fd5b505af1158015613ccd573d6000803e3d6000fd5b505050506040513d6020811015613ce357600080fd5b5051604080517f23b872dd000000000000000000000000000000000000000000000000000000008152600160a060020a0389811660048301528881166024830152604482018890529151929450908916916323b872dd9160648082019260009290919082900301818387803b158015613d5b57600080fd5b505af1158015613d6f573d6000803e3d6000fd5b5050505086600160a060020a03166370a08231866040518263ffffffff1660e060020a0281526004018082600160a060020a0316600160a060020a03168152602001915050602060405180830381600087803b158015613dce57600080fd5b505af1158015613de2573d6000803e3d6000fd5b505050506040513d6020811015613df857600080fd5b50519050818111613e0557fe5b611c7a565b604080517f23b872dd000000000000000000000000000000000000000000000000000000008152600160a060020a0388811660048301528781166024830152604482018790529151918916916323b872dd916064808201926020929091908290030181600087803b158015613e7e57600080fd5b505af1158015613e92573d6000803e3d6000fd5b505050506040513d6020811015613ea857600080fd5b50511515611c7a57fe5b600080600080613ec28787612e45565b90935091508215801590613ed65750848310155b1515613ee157600080fd5b50600160a060020a0386166000908152600a602052604090206001810154640100000000900460ff1615613f24578054613f21908763ffffffff6143b516565b81555b613f3087333089613b23565b6002546040805160e260020a63219e412d028152336004820152602481018690529051600160a060020a039092169163867904b49160448082019260009290919082900301818387803b158015613f8657600080fd5b505af1158015613f9a573d6000803e3d6000fd5b5050600254613fb89250899150600160a060020a0316888686614765565b86600160a060020a0316600080516020614a01833981519152600260009054906101000a9004600160a060020a0316600160a060020a03166318160ddd6040518163ffffffff1660e060020a028152600401602060405180830381600087803b15801561402457600080fd5b505af1158015614038573d6000803e3d6000fd5b505050506040513d602081101561404e57600080fd5b50516140598a6135e5565b600185015460408051938452602084019290925263ffffffff1682820152519081900360600190a2509095945050505050565b600254604080517f70a08231000000000000000000000000000000000000000000000000000000008152336004820152905160009283928392839283928392600160a060020a03909216916370a082319160248082019260209290919082900301818787803b1580156140fe57600080fd5b505af1158015614112573d6000803e3d6000fd5b505050506040513d602081101561412857600080fd5b505188111561413657600080fd5b61414089896125c6565b909550935084158015906141545750868510155b151561415f57600080fd5b600260009054906101000a9004600160a060020a0316600160a060020a03166318160ddd6040518163ffffffff1660e060020a028152600401602060405180830381600087803b1580156141b257600080fd5b505af11580156141c6573d6000803e3d6000fd5b505050506040513d60208110156141dc57600080fd5b505192506141e9896135e5565b9150818510806142025750818514801561420257508288145b151561420a57fe5b50600160a060020a0388166000908152600a602052604090206001810154640100000000900460ff161561424d57805461424a908663ffffffff6143d216565b81555b6002546040805160e060020a63a24835d1028152336004820152602481018b90529051600160a060020a039092169163a24835d19160448082019260009290919082900301818387803b1580156142a357600080fd5b505af11580156142b7573d6000803e3d6000fd5b505050506142c68933876143e7565b6002546142df90600160a060020a03168a8a8888614765565b88600160a060020a0316600080516020614a01833981519152600260009054906101000a9004600160a060020a0316600160a060020a03166318160ddd6040518163ffffffff1660e060020a028152600401602060405180830381600087803b15801561434b57600080fd5b505af115801561435f573d6000803e3d6000fd5b505050506040513d602081101561437557600080fd5b50516143808c6135e5565b600185015460408051938452602084019290925263ffffffff1682820152519081900360600190a25092979650505050505050565b6000828201838110156143c757600080fd5b8091505b5092915050565b6000818310156143e157600080fd5b50900390565b6007546040805160e260020a632ecd14d30281527f4e6f6e5374616e64617264546f6b656e526567697374727900000000000000006004820152905160009283928392600160a060020a039092169163bb34534c9160248082019260209290919082900301818787803b15801561445d57600080fd5b505af1158015614471573d6000803e3d6000fd5b505050506040513d602081101561448757600080fd5b5051604080517faeea10bd000000000000000000000000000000000000000000000000000000008152600160a060020a03898116600483015291519295509085169163aeea10bd916024808201926020929091908290030181600087803b1580156144f157600080fd5b505af1158015614505573d6000803e3d6000fd5b505050506040513d602081101561451b57600080fd5b5051156146c65785600160a060020a03166370a08231866040518263ffffffff1660e060020a0281526004018082600160a060020a0316600160a060020a03168152602001915050602060405180830381600087803b15801561457d57600080fd5b505af1158015614591573d6000803e3d6000fd5b505050506040513d60208110156145a757600080fd5b5051604080517fa9059cbb000000000000000000000000000000000000000000000000000000008152600160a060020a0388811660048301526024820188905291519294509088169163a9059cbb9160448082019260009290919082900301818387803b15801561461757600080fd5b505af115801561462b573d6000803e3d6000fd5b5050505085600160a060020a03166370a08231866040518263ffffffff1660e060020a0281526004018082600160a060020a0316600160a060020a03168152602001915050602060405180830381600087803b15801561468a57600080fd5b505af115801561469e573d6000803e3d6000fd5b505050506040513d60208110156146b457600080fd5b505190508181116146c157fe5b61475d565b85600160a060020a031663a9059cbb86866040518363ffffffff1660e060020a0281526004018083600160a060020a0316600160a060020a0316815260200182815260200192505050602060405180830381600087803b15801561472957600080fd5b505af115801561473d573d6000803e3d6000fd5b505050506040513d602081101561475357600080fd5b5051151561475d57fe5b505050505050565b7f800000000000000000000000000000000000000000000000000000000000000081111561478f57fe5b604080518481526020810184905280820183905290513391600160a060020a0387811692908916917f276856b36cbc45526a0ba64f44611557a2a8b68662c5388e9fe6d72e86e1c8cb919081900360600190a45050505050565b6000808315156147fc57600091506143cb565b5082820282848281151561480c57fe5b04146143c757600080fd5b60008080831161482657600080fd5b828481151561483157fe5b04949350505050565b600054600160a060020a0316331461485157600080fd5b82600160a060020a038116151561486757600080fd5b82600160a060020a038116151561487d57600080fd5b83600160a060020a03811630141561489457600080fd5b85600160a060020a031663a9059cbb86866040518363ffffffff1660e060020a0281526004018083600160a060020a0316600160a060020a0316815260200182815260200192505050600060405180830381600087803b1580156148f757600080fd5b505af115801561490b573d6000803e3d6000fd5b50505050505050505050565b82805482825590600052602060002090810192821561496c579160200282015b8281111561496c5782518254600160a060020a031916600160a060020a03909116178255602090920191600190910190614937565b5061497892915061497c565b5090565b6125c391905b80821115614978578054600160a060020a0319168155600101614982560042616e636f72466f726d756c610000000000000000000000000000000000000042616e636f724e6574776f726b0000000000000000000000000000000000000042616e636f72436f6e76657274657255706772616465720000000000000000008a6a7f53b3c8fa1dc4b83e3f1be668c1b251ff8d44cdcb83eb3acec3fec6a788a165627a7a7230582081aefd3dad45c4aa29492e0e7af0cb80ae72b8c4a01fcacea03eba0daa1604370029a165627a7a72305820850a1424d496f0a33a54e2e73100d0504927d72a575a156055895f8160086db60029",
  "source": "pragma solidity ^0.4.24;\nimport './BancorConverter.sol';\nimport './interfaces/IBancorConverterFactory.sol';\nimport '../utility/interfaces/IContractRegistry.sol';\n\n/*\n    Bancor Converter Factory\n*/\ncontract BancorConverterFactory is IBancorConverterFactory {\n    // triggered when a new converter is created\n    event NewConverter(address indexed _converter, address indexed _owner);\n\n    /**\n        @dev constructor\n    */\n    constructor() public {\n    }\n\n    /**\n        @dev creates a new converter with the given arguments and transfers\n        the ownership and management to the sender.\n\n        @param  _token              smart token governed by the converter\n        @param  _registry           address of a contract registry contract\n        @param  _maxConversionFee   maximum conversion fee, represented in ppm\n        @param  _connectorToken     optional, initial connector, allows defining the first connector at deployment time\n        @param  _connectorWeight    optional, weight for the initial connector\n\n        @return a new converter\n    */\n    function createConverter(\n        ISmartToken _token,\n        IContractRegistry _registry,\n        uint32 _maxConversionFee,\n        IERC20Token _connectorToken,\n        uint32 _connectorWeight\n    ) public returns(address converterAddress) {\n        BancorConverter converter = new BancorConverter(\n            _token,\n            _registry,\n            _maxConversionFee,\n            _connectorToken,\n            _connectorWeight\n        );\n\n        converter.transferOwnership(msg.sender);\n        converter.transferManagement(msg.sender);\n\n        address _converterAddress = address(converter);\n        emit NewConverter(_converterAddress, msg.sender);\n        return _converterAddress;\n    }\n}\n",
  "sourcePath": "/Users/Nick/WebstormProjects/BancorOriginal/solidity/contracts/converter/BancorConverterFactory.sol",
  "compiler": {
    "name": "solc",
    "version": "0.4.24+commit.e67f0147.Emscripten.clang"
  },
  "schemaVersion": "3.0.16",
  "updatedAt": "2019-12-04T00:14:08.205Z",
  "devdoc": {
    "methods": {
      "createConverter(address,address,uint32,address,uint32)": {
        "details": "creates a new converter with the given arguments and transfers the ownership and management to the sender.",
        "params": {
          "_connectorToken": "optional, initial connector, allows defining the first connector at deployment time",
          "_connectorWeight": "optional, weight for the initial connector",
          "_maxConversionFee": "maximum conversion fee, represented in ppm",
          "_registry": "address of a contract registry contract",
          "_token": "smart token governed by the converter"
        },
        "return": "a new converter"
      }
    }
  },
  "userdoc": {
    "methods": {}
  }
}