{
  "contractName": "ContractRegistry",
  "abi": [
    {
      "constant": true,
      "inputs": [],
      "name": "BANCOR_CONVERTER_UPGRADER",
      "outputs": [
        {
          "name": "",
          "type": "bytes32"
        }
      ],
      "payable": false,
      "stateMutability": "view",
      "type": "function"
    },
    {
      "constant": true,
      "inputs": [],
      "name": "BNT_TOKEN",
      "outputs": [
        {
          "name": "",
          "type": "bytes32"
        }
      ],
      "payable": false,
      "stateMutability": "view",
      "type": "function"
    },
    {
      "constant": true,
      "inputs": [],
      "name": "CONTRACT_REGISTRY",
      "outputs": [
        {
          "name": "",
          "type": "bytes32"
        }
      ],
      "payable": false,
      "stateMutability": "view",
      "type": "function"
    },
    {
      "constant": true,
      "inputs": [
        {
          "name": "",
          "type": "uint256"
        }
      ],
      "name": "contractNames",
      "outputs": [
        {
          "name": "",
          "type": "string"
        }
      ],
      "payable": false,
      "stateMutability": "view",
      "type": "function"
    },
    {
      "constant": true,
      "inputs": [],
      "name": "BANCOR_CONVERTER_FACTORY",
      "outputs": [
        {
          "name": "",
          "type": "bytes32"
        }
      ],
      "payable": false,
      "stateMutability": "view",
      "type": "function"
    },
    {
      "constant": true,
      "inputs": [],
      "name": "BNT_CONVERTER",
      "outputs": [
        {
          "name": "",
          "type": "bytes32"
        }
      ],
      "payable": false,
      "stateMutability": "view",
      "type": "function"
    },
    {
      "constant": true,
      "inputs": [],
      "name": "BANCOR_FORMULA",
      "outputs": [
        {
          "name": "",
          "type": "bytes32"
        }
      ],
      "payable": false,
      "stateMutability": "view",
      "type": "function"
    },
    {
      "constant": false,
      "inputs": [],
      "name": "acceptOwnership",
      "outputs": [],
      "payable": false,
      "stateMutability": "nonpayable",
      "type": "function"
    },
    {
      "constant": true,
      "inputs": [],
      "name": "CONTRACT_FEATURES",
      "outputs": [
        {
          "name": "",
          "type": "bytes32"
        }
      ],
      "payable": false,
      "stateMutability": "view",
      "type": "function"
    },
    {
      "constant": true,
      "inputs": [],
      "name": "owner",
      "outputs": [
        {
          "name": "",
          "type": "address"
        }
      ],
      "payable": false,
      "stateMutability": "view",
      "type": "function"
    },
    {
      "constant": true,
      "inputs": [],
      "name": "BANCOR_NETWORK",
      "outputs": [
        {
          "name": "",
          "type": "bytes32"
        }
      ],
      "payable": false,
      "stateMutability": "view",
      "type": "function"
    },
    {
      "constant": true,
      "inputs": [],
      "name": "BANCOR_GAS_PRICE_LIMIT",
      "outputs": [
        {
          "name": "",
          "type": "bytes32"
        }
      ],
      "payable": false,
      "stateMutability": "view",
      "type": "function"
    },
    {
      "constant": true,
      "inputs": [],
      "name": "BANCOR_X",
      "outputs": [
        {
          "name": "",
          "type": "bytes32"
        }
      ],
      "payable": false,
      "stateMutability": "view",
      "type": "function"
    },
    {
      "constant": true,
      "inputs": [],
      "name": "BANCOR_X_UPGRADER",
      "outputs": [
        {
          "name": "",
          "type": "bytes32"
        }
      ],
      "payable": false,
      "stateMutability": "view",
      "type": "function"
    },
    {
      "constant": true,
      "inputs": [],
      "name": "newOwner",
      "outputs": [
        {
          "name": "",
          "type": "address"
        }
      ],
      "payable": false,
      "stateMutability": "view",
      "type": "function"
    },
    {
      "constant": false,
      "inputs": [
        {
          "name": "_newOwner",
          "type": "address"
        }
      ],
      "name": "transferOwnership",
      "outputs": [],
      "payable": false,
      "stateMutability": "nonpayable",
      "type": "function"
    },
    {
      "constant": true,
      "inputs": [],
      "name": "NON_STANDARD_TOKEN_REGISTRY",
      "outputs": [
        {
          "name": "",
          "type": "bytes32"
        }
      ],
      "payable": false,
      "stateMutability": "view",
      "type": "function"
    },
    {
      "inputs": [],
      "payable": false,
      "stateMutability": "nonpayable",
      "type": "constructor"
    },
    {
      "anonymous": false,
      "inputs": [
        {
          "indexed": true,
          "name": "_contractName",
          "type": "bytes32"
        },
        {
          "indexed": false,
          "name": "_contractAddress",
          "type": "address"
        }
      ],
      "name": "AddressUpdate",
      "type": "event"
    },
    {
      "anonymous": false,
      "inputs": [
        {
          "indexed": true,
          "name": "_prevOwner",
          "type": "address"
        },
        {
          "indexed": true,
          "name": "_newOwner",
          "type": "address"
        }
      ],
      "name": "OwnerUpdate",
      "type": "event"
    },
    {
      "constant": true,
      "inputs": [],
      "name": "itemCount",
      "outputs": [
        {
          "name": "",
          "type": "uint256"
        }
      ],
      "payable": false,
      "stateMutability": "view",
      "type": "function"
    },
    {
      "constant": true,
      "inputs": [
        {
          "name": "_contractName",
          "type": "bytes32"
        }
      ],
      "name": "addressOf",
      "outputs": [
        {
          "name": "",
          "type": "address"
        }
      ],
      "payable": false,
      "stateMutability": "view",
      "type": "function"
    },
    {
      "constant": false,
      "inputs": [
        {
          "name": "_contractName",
          "type": "bytes32"
        },
        {
          "name": "_contractAddress",
          "type": "address"
        }
      ],
      "name": "registerAddress",
      "outputs": [],
      "payable": false,
      "stateMutability": "nonpayable",
      "type": "function"
    },
    {
      "constant": false,
      "inputs": [
        {
          "name": "_contractName",
          "type": "bytes32"
        }
      ],
      "name": "unregisterAddress",
      "outputs": [],
      "payable": false,
      "stateMutability": "nonpayable",
      "type": "function"
    },
    {
      "constant": true,
      "inputs": [
        {
          "name": "_contractName",
          "type": "bytes32"
        }
      ],
      "name": "getAddress",
      "outputs": [
        {
          "name": "",
          "type": "address"
        }
      ],
      "payable": false,
      "stateMutability": "view",
      "type": "function"
    }
  ],
  "bytecode": "0x60806040523480156200001157600080fd5b5060008054600160a060020a03191633179055620000597f436f6e7472616374526567697374727900000000000000000000000000000000306401000000006200005f810204565b620002af565b60008054600160a060020a031633146200007857600080fd5b81600160a060020a03811615156200008f57600080fd5b600084815260026020526040902054600160a060020a031615156200010b576003620000c48564010000000062000171810204565b815460018101808455600093845260209384902083519194620000ee94919093019201906200020a565b506000858152600260205260409020600019820160019091015591505b6000848152600260209081526040918290208054600160a060020a031916600160a060020a0387169081179091558251908152915186927ffc08d1253c81bcd5444fc7056ef1f5a5df4c9220b6fd70d7449267f1f0f2991892908290030190a250505050565b6040805160208082528183019092526060918291600091808201610400803883390190505091505b60208110156200020357838160208110620001b057fe5b1a7f0100000000000000000000000000000000000000000000000000000000000000028282815181101515620001e257fe5b906020010190600160f860020a031916908160001a90535060010162000199565b5092915050565b828054600181600116156101000203166002900490600052602060002090601f016020900481019282601f106200024d57805160ff19168380011785556200027d565b828001600101855582156200027d579182015b828111156200027d57825182559160200191906001019062000260565b506200028b9291506200028f565b5090565b620002ac91905b808211156200028b576000815560010162000296565b90565b610c5c80620002bf6000396000f3006080604052600436106101275763ffffffff7c01000000000000000000000000000000000000000000000000000000006000350416630c87355e811461012c5780631d000b611461015357806321f8a7211461016857806325f9bfef1461019c5780632bbd9530146101b15780633ca6bb92146101cb5780635a46f06c1461025857806362614ae61461026d578063662de379146102825780636bfb0d01146102a65780636d7bd3fc146102bb57806379ba5097146102d057806383315b6e146102e55780638da5cb5b146102fa5780639232494e1461030f5780639249993a14610324578063bb34534c14610339578063c4a8598e14610351578063cc97b38f14610366578063d4ee1d901461037b578063f2fde38b14610390578063f5286b9c146103b1575b600080fd5b34801561013857600080fd5b506101416103c6565b60408051918252519081900360200190f35b34801561015f57600080fd5b506101416103ea565b34801561017457600080fd5b5061018060043561040e565b60408051600160a060020a039092168252519081900360200190f35b3480156101a857600080fd5b5061014161041f565b3480156101bd57600080fd5b506101c9600435610443565b005b3480156101d757600080fd5b506101e360043561062e565b6040805160208082528351818301528351919283929083019185019080838360005b8381101561021d578181015183820152602001610205565b50505050905090810190601f16801561024a5780820380516001836020036101000a031916815260200191505b509250505060405180910390f35b34801561026457600080fd5b506101416106d5565b34801561027957600080fd5b506101416106f9565b34801561028e57600080fd5b506101c9600435600160a060020a036024351661071d565b3480156102b257600080fd5b5061014161082c565b3480156102c757600080fd5b50610141610833565b3480156102dc57600080fd5b506101c9610857565b3480156102f157600080fd5b506101416108df565b34801561030657600080fd5b50610180610903565b34801561031b57600080fd5b50610141610912565b34801561033057600080fd5b50610141610936565b34801561034557600080fd5b5061018060043561095a565b34801561035d57600080fd5b50610141610975565b34801561037257600080fd5b50610141610999565b34801561038757600080fd5b506101806109bd565b34801561039c57600080fd5b506101c9600160a060020a03600435166109cc565b3480156103bd57600080fd5b50610141610a2d565b7f42616e636f72436f6e766572746572557067726164657200000000000000000081565b7f424e54546f6b656e00000000000000000000000000000000000000000000000081565b60006104198261095a565b92915050565b7f436f6e747261637452656769737472790000000000000000000000000000000081565b600080546060919081908190600160a060020a0316331461046357600080fd5b600085815260026020526040902054600160a060020a0316151561048657600080fd5b6000858152600260205260409020805473ffffffffffffffffffffffffffffffffffffffff19169055600354600110156105cb576003805460001981019081106104cc57fe5b600091825260209182902001805460408051601f600260001961010060018716150201909416939093049283018590048502810185019091528181529283018282801561055a5780601f1061052f5761010080835404028352916020019161055a565b820191906000526020600020905b81548152906001019060200180831161053d57829003601f168201915b505050600088815260026020526040902060010154600380549498509096508793909250869150811061058957fe5b9060005260206000200190805190602001906105a6929190610b05565b506105b084610a51565b60008181526002602052604090206001810185905590925090505b60038054906105de906000198301610b83565b50600085815260026020908152604080832060010183905580519283525187927ffc08d1253c81bcd5444fc7056ef1f5a5df4c9220b6fd70d7449267f1f0f2991892908290030190a25050505050565b600380548290811061063c57fe5b600091825260209182902001805460408051601f60026000196101006001871615020190941693909304928301859004850281018501909152818152935090918301828280156106cd5780601f106106a2576101008083540402835291602001916106cd565b820191906000526020600020905b8154815290600101906020018083116106b057829003601f168201915b505050505081565b7f42616e636f72436f6e766572746572466163746f72790000000000000000000081565b7f424e54436f6e766572746572000000000000000000000000000000000000000081565b60008054600160a060020a0316331461073557600080fd5b81600160a060020a038116151561074b57600080fd5b600084815260026020526040902054600160a060020a031615156107b957600361077485610a58565b81546001810180845560009384526020938490208351919461079c9491909301920190610b05565b506000858152600260205260409020600019820160019091015591505b600084815260026020908152604091829020805473ffffffffffffffffffffffffffffffffffffffff1916600160a060020a0387169081179091558251908152915186927ffc08d1253c81bcd5444fc7056ef1f5a5df4c9220b6fd70d7449267f1f0f2991892908290030190a250505050565b6003545b90565b7f42616e636f72466f726d756c610000000000000000000000000000000000000081565b600154600160a060020a0316331461086e57600080fd5b60015460008054604051600160a060020a0393841693909116917f343765429aea5a34b3ff6a3785a98a5abb2597aca87bfbb58632c173d585373a91a3600180546000805473ffffffffffffffffffffffffffffffffffffffff19908116600160a060020a03841617909155169055565b7f436f6e747261637446656174757265730000000000000000000000000000000081565b600054600160a060020a031681565b7f42616e636f724e6574776f726b0000000000000000000000000000000000000081565b7f42616e636f7247617350726963654c696d69740000000000000000000000000081565b600090815260026020526040902054600160a060020a031690565b7f42616e636f72580000000000000000000000000000000000000000000000000081565b7f42616e636f72585570677261646572000000000000000000000000000000000081565b600154600160a060020a031681565b600054600160a060020a031633146109e357600080fd5b600054600160a060020a03828116911614156109fe57600080fd5b6001805473ffffffffffffffffffffffffffffffffffffffff1916600160a060020a0392909216919091179055565b7f4e6f6e5374616e64617264546f6b656e5265676973747279000000000000000081565b6020015190565b6040805160208082528183019092526060918291600091808201610400803883390190505091505b6020811015610afe57838160208110610a9557fe5b1a7f0100000000000000000000000000000000000000000000000000000000000000028282815181101515610ac657fe5b9060200101907effffffffffffffffffffffffffffffffffffffffffffffffffffffffffffff1916908160001a905350600101610a80565b5092915050565b828054600181600116156101000203166002900490600052602060002090601f016020900481019282601f10610b4657805160ff1916838001178555610b73565b82800160010185558215610b73579182015b82811115610b73578251825591602001919060010190610b58565b50610b7f929150610bac565b5090565b815481835581811115610ba757600083815260209020610ba7918101908301610bc6565b505050565b61083091905b80821115610b7f5760008155600101610bb2565b61083091905b80821115610b7f576000610be08282610be9565b50600101610bcc565b50805460018160011615610100020316600290046000825580601f10610c0f5750610c2d565b601f016020900490600052602060002090810190610c2d9190610bac565b505600a165627a7a723058207e65a20738362cff3c7e4a9668ba7bd2fa82ca5dab1c85e90872eecee8f6c1a70029",
  "source": "pragma solidity ^0.4.24;\nimport './Owned.sol';\nimport './Utils.sol';\nimport './interfaces/IContractRegistry.sol';\nimport '../ContractIds.sol';\n\n/**\n    Contract Registry\n\n    The contract registry keeps contract addresses by name.\n    The owner can update contract addresses so that a contract name always points to the latest version\n    of the given contract.\n    Other contracts can query the registry to get updated addresses instead of depending on specific\n    addresses.\n\n    Note that contract names are limited to 32 bytes UTF8 encoded ASCII strings to optimize gas costs\n*/\ncontract ContractRegistry is IContractRegistry, Owned, Utils, ContractIds {\n    struct RegistryItem {\n        address contractAddress;    // contract address\n        uint256 nameIndex;          // index of the item in the list of contract names\n    }\n\n    mapping (bytes32 => RegistryItem) private items;    // name -> RegistryItem mapping\n    string[] public contractNames;                      // list of all registered contract names\n\n    // triggered when an address pointed to by a contract name is modified\n    event AddressUpdate(bytes32 indexed _contractName, address _contractAddress);\n\n    /**\n        @dev constructor\n    */\n    constructor() public {\n        registerAddress(ContractIds.CONTRACT_REGISTRY, address(this));\n    }\n\n    /**\n        @dev returns the number of items in the registry\n\n        @return number of items\n    */\n    function itemCount() public view returns (uint256) {\n        return contractNames.length;\n    }\n\n    /**\n        @dev returns the address associated with the given contract name\n\n        @param _contractName    contract name\n\n        @return contract address\n    */\n    function addressOf(bytes32 _contractName) public view returns (address) {\n        return items[_contractName].contractAddress;\n    }\n\n    /**\n        @dev registers a new address for the contract name in the registry\n\n        @param _contractName     contract name\n        @param _contractAddress  contract address\n    */\n    function registerAddress(bytes32 _contractName, address _contractAddress)\n        public\n        ownerOnly\n        validAddress(_contractAddress)\n    {\n        require(_contractName.length > 0); // validate input\n\n        if (items[_contractName].contractAddress == address(0)) {\n            // add the contract name to the name list\n            uint256 i = contractNames.push(bytes32ToString(_contractName));\n            // update the item's index in the list\n            items[_contractName].nameIndex = i - 1;\n        }\n\n        // update the address in the registry\n        items[_contractName].contractAddress = _contractAddress;\n\n        // dispatch the address update event\n        emit AddressUpdate(_contractName, _contractAddress);\n    }\n\n    /**\n        @dev removes an existing contract address from the registry\n\n        @param _contractName contract name\n    */\n    function unregisterAddress(bytes32 _contractName) public ownerOnly {\n        require(_contractName.length > 0); // validate input\n        require(items[_contractName].contractAddress != address(0));\n\n        // remove the address from the registry\n        items[_contractName].contractAddress = address(0);\n\n        // if there are multiple items in the registry, move the last element to the deleted element's position\n        // and modify last element's registryItem.nameIndex in the items collection to point to the right position in contractNames\n        if (contractNames.length > 1) {\n            string memory lastContractNameString = contractNames[contractNames.length - 1];\n            uint256 unregisterIndex = items[_contractName].nameIndex;\n\n            contractNames[unregisterIndex] = lastContractNameString;\n            bytes32 lastContractName = stringToBytes32(lastContractNameString);\n            RegistryItem storage registryItem = items[lastContractName];\n            registryItem.nameIndex = unregisterIndex;\n        }\n\n        // remove the last element from the name list\n        contractNames.length--;\n        // zero the deleted element's index\n        items[_contractName].nameIndex = 0;\n\n        // dispatch the address update event\n        emit AddressUpdate(_contractName, address(0));\n    }\n\n    /**\n        @dev utility, converts bytes32 to a string\n        note that the bytes32 argument is assumed to be UTF8 encoded ASCII string\n\n        @return string representation of the given bytes32 argument\n    */\n    function bytes32ToString(bytes32 _bytes) private pure returns (string) {\n        bytes memory byteArray = new bytes(32);\n        for (uint256 i; i < 32; i++) {\n            byteArray[i] = _bytes[i];\n        }\n\n        return string(byteArray);\n    }\n\n    // @dev utility, converts string to bytes32\n    function stringToBytes32(string memory _string) private pure returns (bytes32) {\n        bytes32 result;\n        assembly {\n            result := mload(add(_string,32))\n        }\n        return result;\n    }\n\n    // deprecated, backward compatibility\n    function getAddress(bytes32 _contractName) public view returns (address) {\n        return addressOf(_contractName);\n    }\n}\n",
  "sourcePath": "/Users/Nick/WebstormProjects/BancorOriginal/solidity/contracts/utility/ContractRegistry.sol",
  "compiler": {
    "name": "solc",
    "version": "0.4.24+commit.e67f0147.Emscripten.clang"
  },
  "schemaVersion": "3.0.16",
  "updatedAt": "2019-12-04T00:14:08.404Z",
  "devdoc": {
    "methods": {
      "acceptOwnership()": {
        "details": "used by a new owner to accept an ownership transfer"
      },
      "addressOf(bytes32)": {
        "details": "returns the address associated with the given contract name",
        "params": {
          "_contractName": "contract name"
        },
        "return": "contract address"
      },
      "itemCount()": {
        "details": "returns the number of items in the registry",
        "return": "number of items"
      },
      "registerAddress(bytes32,address)": {
        "details": "registers a new address for the contract name in the registry",
        "params": {
          "_contractAddress": "contract address",
          "_contractName": "contract name"
        }
      },
      "transferOwnership(address)": {
        "details": "allows transferring the contract ownership the new owner still needs to accept the transfer can only be called by the contract owner",
        "params": {
          "_newOwner": "new contract owner"
        }
      },
      "unregisterAddress(bytes32)": {
        "details": "removes an existing contract address from the registry",
        "params": {
          "_contractName": "contract name"
        }
      }
    }
  },
  "userdoc": {
    "methods": {}
  }
}