{
  "contractName": "ContractIds",
  "abi": [
    {
      "constant": true,
      "inputs": [],
      "name": "BANCOR_CONVERTER_UPGRADER",
      "outputs": [
        {
          "name": "",
          "type": "bytes32"
        }
      ],
      "payable": false,
      "stateMutability": "view",
      "type": "function"
    },
    {
      "constant": true,
      "inputs": [],
      "name": "BNT_TOKEN",
      "outputs": [
        {
          "name": "",
          "type": "bytes32"
        }
      ],
      "payable": false,
      "stateMutability": "view",
      "type": "function"
    },
    {
      "constant": true,
      "inputs": [],
      "name": "CONTRACT_REGISTRY",
      "outputs": [
        {
          "name": "",
          "type": "bytes32"
        }
      ],
      "payable": false,
      "stateMutability": "view",
      "type": "function"
    },
    {
      "constant": true,
      "inputs": [],
      "name": "BANCOR_CONVERTER_FACTORY",
      "outputs": [
        {
          "name": "",
          "type": "bytes32"
        }
      ],
      "payable": false,
      "stateMutability": "view",
      "type": "function"
    },
    {
      "constant": true,
      "inputs": [],
      "name": "BNT_CONVERTER",
      "outputs": [
        {
          "name": "",
          "type": "bytes32"
        }
      ],
      "payable": false,
      "stateMutability": "view",
      "type": "function"
    },
    {
      "constant": true,
      "inputs": [],
      "name": "BANCOR_FORMULA",
      "outputs": [
        {
          "name": "",
          "type": "bytes32"
        }
      ],
      "payable": false,
      "stateMutability": "view",
      "type": "function"
    },
    {
      "constant": true,
      "inputs": [],
      "name": "CONTRACT_FEATURES",
      "outputs": [
        {
          "name": "",
          "type": "bytes32"
        }
      ],
      "payable": false,
      "stateMutability": "view",
      "type": "function"
    },
    {
      "constant": true,
      "inputs": [],
      "name": "BANCOR_NETWORK",
      "outputs": [
        {
          "name": "",
          "type": "bytes32"
        }
      ],
      "payable": false,
      "stateMutability": "view",
      "type": "function"
    },
    {
      "constant": true,
      "inputs": [],
      "name": "BANCOR_GAS_PRICE_LIMIT",
      "outputs": [
        {
          "name": "",
          "type": "bytes32"
        }
      ],
      "payable": false,
      "stateMutability": "view",
      "type": "function"
    },
    {
      "constant": true,
      "inputs": [],
      "name": "BANCOR_X",
      "outputs": [
        {
          "name": "",
          "type": "bytes32"
        }
      ],
      "payable": false,
      "stateMutability": "view",
      "type": "function"
    },
    {
      "constant": true,
      "inputs": [],
      "name": "BANCOR_X_UPGRADER",
      "outputs": [
        {
          "name": "",
          "type": "bytes32"
        }
      ],
      "payable": false,
      "stateMutability": "view",
      "type": "function"
    },
    {
      "constant": true,
      "inputs": [],
      "name": "NON_STANDARD_TOKEN_REGISTRY",
      "outputs": [
        {
          "name": "",
          "type": "bytes32"
        }
      ],
      "payable": false,
      "stateMutability": "view",
      "type": "function"
    }
  ],
  "bytecode": "0x608060405234801561001057600080fd5b506103a8806100206000396000f3006080604052600436106100b95763ffffffff7c01000000000000000000000000000000000000000000000000000000006000350416630c87355e81146100be5780631d000b61146100e557806325f9bfef146100fa5780635a46f06c1461010f57806362614ae6146101245780636d7bd3fc1461013957806383315b6e1461014e5780639232494e146101635780639249993a14610178578063c4a8598e1461018d578063cc97b38f146101a2578063f5286b9c146101b7575b600080fd5b3480156100ca57600080fd5b506100d36101cc565b60408051918252519081900360200190f35b3480156100f157600080fd5b506100d36101f0565b34801561010657600080fd5b506100d3610214565b34801561011b57600080fd5b506100d3610238565b34801561013057600080fd5b506100d361025c565b34801561014557600080fd5b506100d3610280565b34801561015a57600080fd5b506100d36102a4565b34801561016f57600080fd5b506100d36102c8565b34801561018457600080fd5b506100d36102ec565b34801561019957600080fd5b506100d3610310565b3480156101ae57600080fd5b506100d3610334565b3480156101c357600080fd5b506100d3610358565b7f42616e636f72436f6e766572746572557067726164657200000000000000000081565b7f424e54546f6b656e00000000000000000000000000000000000000000000000081565b7f436f6e747261637452656769737472790000000000000000000000000000000081565b7f42616e636f72436f6e766572746572466163746f72790000000000000000000081565b7f424e54436f6e766572746572000000000000000000000000000000000000000081565b7f42616e636f72466f726d756c610000000000000000000000000000000000000081565b7f436f6e747261637446656174757265730000000000000000000000000000000081565b7f42616e636f724e6574776f726b0000000000000000000000000000000000000081565b7f42616e636f7247617350726963654c696d69740000000000000000000000000081565b7f42616e636f72580000000000000000000000000000000000000000000000000081565b7f42616e636f72585570677261646572000000000000000000000000000000000081565b7f4e6f6e5374616e64617264546f6b656e52656769737472790000000000000000815600a165627a7a723058209fae834ab9144fcf1207e1f10c0d0ccccb05e9d8edd39ffc19cd133d958625640029",
  "source": "pragma solidity ^0.4.24;\n\n/**\n    Id definitions for bancor contracts\n\n    Can be used in conjunction with the contract registry to get contract addresses\n*/\ncontract ContractIds {\n    // generic\n    bytes32 public constant CONTRACT_FEATURES = \"ContractFeatures\";\n    bytes32 public constant CONTRACT_REGISTRY = \"ContractRegistry\";\n    bytes32 public constant NON_STANDARD_TOKEN_REGISTRY = \"NonStandardTokenRegistry\";\n\n    // bancor logic\n    bytes32 public constant BANCOR_NETWORK = \"BancorNetwork\";\n    bytes32 public constant BANCOR_FORMULA = \"BancorFormula\";\n    bytes32 public constant BANCOR_GAS_PRICE_LIMIT = \"BancorGasPriceLimit\";\n    bytes32 public constant BANCOR_CONVERTER_UPGRADER = \"BancorConverterUpgrader\";\n    bytes32 public constant BANCOR_CONVERTER_FACTORY = \"BancorConverterFactory\";\n\n    // BNT core\n    bytes32 public constant BNT_TOKEN = \"BNTToken\";\n    bytes32 public constant BNT_CONVERTER = \"BNTConverter\";\n\n    // BancorX\n    bytes32 public constant BANCOR_X = \"BancorX\";\n    bytes32 public constant BANCOR_X_UPGRADER = \"BancorXUpgrader\";\n}\n",
  "sourcePath": "/Users/Nick/WebstormProjects/BancorOriginal/solidity/contracts/ContractIds.sol",
  "compiler": {
    "name": "solc",
    "version": "0.4.24+commit.e67f0147.Emscripten.clang"
  },
  "schemaVersion": "3.0.16",
  "updatedAt": "2019-12-04T00:14:08.139Z",
  "devdoc": {
    "methods": {}
  },
  "userdoc": {
    "methods": {}
  }
}