{
  "contractName": "FeatureIds",
  "abi": [
    {
      "constant": true,
      "inputs": [],
      "name": "CONVERTER_CONVERSION_WHITELIST",
      "outputs": [
        {
          "name": "",
          "type": "uint256"
        }
      ],
      "payable": false,
      "stateMutability": "view",
      "type": "function"
    }
  ],
  "bytecode": "0x6080604052348015600f57600080fd5b5060988061001e6000396000f300608060405260043610603e5763ffffffff7c010000000000000000000000000000000000000000000000000000000060003504166392d1abb781146043575b600080fd5b348015604e57600080fd5b5060556067565b60408051918252519081900360200190f35b6001815600a165627a7a723058207ad38ac4b34ea9e2077eea489d6f253d7a3cf4a79a28414674626dd0b398ea860029",
  "source": "pragma solidity ^0.4.24;\n\n/**\n    Id definitions for bancor contract features\n\n    Can be used to query the ContractFeatures contract to check whether a certain feature is supported by a contract\n*/\ncontract FeatureIds {\n    // converter features\n    uint256 public constant CONVERTER_CONVERSION_WHITELIST = 1 << 0;\n}\n",
  "sourcePath": "/Users/Nick/WebstormProjects/BancorOriginal/solidity/contracts/FeatureIds.sol",
  "compiler": {
    "name": "solc",
    "version": "0.4.24+commit.e67f0147.Emscripten.clang"
  },
  "schemaVersion": "3.0.16",
  "updatedAt": "2019-12-04T00:14:08.140Z",
  "devdoc": {
    "methods": {}
  },
  "userdoc": {
    "methods": {}
  }
}