{
  "contractName": "IAddressList",
  "abi": [
    {
      "constant": true,
      "inputs": [
        {
          "name": "",
          "type": "address"
        }
      ],
      "name": "listedAddresses",
      "outputs": [
        {
          "name": "",
          "type": "bool"
        }
      ],
      "payable": false,
      "stateMutability": "view",
      "type": "function"
    }
  ],
  "bytecode": "0x608060405234801561001057600080fd5b5060e88061001f6000396000f300608060405260043610603f576000357c0100000000000000000000000000000000000000000000000000000000900463ffffffff168063aeea10bd146044575b600080fd5b348015604f57600080fd5b506082600480360381019080803573ffffffffffffffffffffffffffffffffffffffff169060200190929190505050609c565b604051808215151515815260200191505060405180910390f35b60006020528060005260406000206000915054906101000a900460ff16815600a165627a7a723058207ac324e9f267928c4406745f9247e159025fcf51cceffd1f71a11907290469750029",
  "source": "pragma solidity ^0.4.24;\n\n/*\n    Address list interface\n*/\ncontract IAddressList {\n    mapping (address => bool) public listedAddresses;\n}\n",
  "sourcePath": "/Users/Nick/WebstormProjects/BancorOriginal/solidity/contracts/utility/interfaces/IAddressList.sol",
  "compiler": {
    "name": "solc",
    "version": "0.4.26+commit.4563c3fc.Emscripten.clang"
  },
  "schemaVersion": "3.0.16",
  "updatedAt": "2019-12-03T23:39:21.173Z",
  "devdoc": {
    "methods": {}
  },
  "userdoc": {
    "methods": {}
  }
}