{
  "contractName": "NonStandardTokenRegistry",
  "abi": [
    {
      "constant": false,
      "inputs": [],
      "name": "acceptOwnership",
      "outputs": [],
      "payable": false,
      "stateMutability": "nonpayable",
      "type": "function"
    },
    {
      "constant": true,
      "inputs": [],
      "name": "owner",
      "outputs": [
        {
          "name": "",
          "type": "address"
        }
      ],
      "payable": false,
      "stateMutability": "view",
      "type": "function"
    },
    {
      "constant": true,
      "inputs": [
        {
          "name": "",
          "type": "address"
        }
      ],
      "name": "listedAddresses",
      "outputs": [
        {
          "name": "",
          "type": "bool"
        }
      ],
      "payable": false,
      "stateMutability": "view",
      "type": "function"
    },
    {
      "constant": true,
      "inputs": [],
      "name": "newOwner",
      "outputs": [
        {
          "name": "",
          "type": "address"
        }
      ],
      "payable": false,
      "stateMutability": "view",
      "type": "function"
    },
    {
      "constant": false,
      "inputs": [
        {
          "name": "_newOwner",
          "type": "address"
        }
      ],
      "name": "transferOwnership",
      "outputs": [],
      "payable": false,
      "stateMutability": "nonpayable",
      "type": "function"
    },
    {
      "inputs": [],
      "payable": false,
      "stateMutability": "nonpayable",
      "type": "constructor"
    },
    {
      "anonymous": false,
      "inputs": [
        {
          "indexed": true,
          "name": "_prevOwner",
          "type": "address"
        },
        {
          "indexed": true,
          "name": "_newOwner",
          "type": "address"
        }
      ],
      "name": "OwnerUpdate",
      "type": "event"
    },
    {
      "constant": false,
      "inputs": [
        {
          "name": "token",
          "type": "address"
        },
        {
          "name": "register",
          "type": "bool"
        }
      ],
      "name": "setAddress",
      "outputs": [],
      "payable": false,
      "stateMutability": "nonpayable",
      "type": "function"
    }
  ],
  "bytecode": "0x608060405234801561001057600080fd5b5060018054600160a060020a031916331790556102e1806100326000396000f3006080604052600436106100775763ffffffff7c0100000000000000000000000000000000000000000000000000000000600035041663608b326f811461007c57806379ba5097146100a45780638da5cb5b146100b9578063aeea10bd146100ea578063d4ee1d901461011f578063f2fde38b14610134575b600080fd5b34801561008857600080fd5b506100a2600160a060020a03600435166024351515610155565b005b3480156100b057600080fd5b506100a2610197565b3480156100c557600080fd5b506100ce610221565b60408051600160a060020a039092168252519081900360200190f35b3480156100f657600080fd5b5061010b600160a060020a0360043516610230565b604080519115158252519081900360200190f35b34801561012b57600080fd5b506100ce610245565b34801561014057600080fd5b506100a2600160a060020a0360043516610254565b600154600160a060020a0316331461016c57600080fd5b600160a060020a03919091166000908152600360205260409020805460ff1916911515919091179055565b600254600160a060020a031633146101ae57600080fd5b600254600154604051600160a060020a0392831692909116907f343765429aea5a34b3ff6a3785a98a5abb2597aca87bfbb58632c173d585373a90600090a3600280546001805473ffffffffffffffffffffffffffffffffffffffff19908116600160a060020a03841617909155169055565b600154600160a060020a031681565b60036020526000908152604090205460ff1681565b600254600160a060020a031681565b600154600160a060020a0316331461026b57600080fd5b600154600160a060020a038281169116141561028657600080fd5b6002805473ffffffffffffffffffffffffffffffffffffffff1916600160a060020a03929092169190911790555600a165627a7a7230582013d867c5ccb2eda9562df2fc20e1897b7b3be517fcbc6d52480208cd542b35930029",
  "source": "pragma solidity ^0.4.24;\nimport './Owned.sol';\nimport './interfaces/IAddressList.sol';\n\n/*\n    Non standard token registry\n\n    manages tokens who don't return true/false on transfer/transferFrom/approve but revert on failure instead \n*/\ncontract NonStandardTokenRegistry is IAddressList, Owned {\n\n    mapping (address => bool) public listedAddresses;\n\n    /**\n        @dev constructor\n    */\n    constructor() public {\n\n    }\n\n    function setAddress(address token, bool register) public ownerOnly {\n        listedAddresses[token] = register;\n    }\n}",
  "sourcePath": "/Users/Nick/WebstormProjects/BancorOriginal/solidity/contracts/utility/NonStandardTokenRegistry.sol",
  "compiler": {
    "name": "solc",
    "version": "0.4.24+commit.e67f0147.Emscripten.clang"
  },
  "schemaVersion": "3.0.16",
  "updatedAt": "2019-12-04T00:14:08.411Z",
  "devdoc": {
    "methods": {
      "acceptOwnership()": {
        "details": "used by a new owner to accept an ownership transfer"
      },
      "transferOwnership(address)": {
        "details": "allows transferring the contract ownership the new owner still needs to accept the transfer can only be called by the contract owner",
        "params": {
          "_newOwner": "new contract owner"
        }
      }
    }
  },
  "userdoc": {
    "methods": {}
  }
}