{
  "contractName": "OldBancorConverter",
  "abi": [
    {
      "inputs": [
        {
          "name": "_amount",
          "type": "uint256"
        }
      ],
      "payable": false,
      "stateMutability": "nonpayable",
      "type": "constructor"
    },
    {
      "constant": true,
      "inputs": [
        {
          "name": "_fromToken",
          "type": "address"
        },
        {
          "name": "_toToken",
          "type": "address"
        },
        {
          "name": "_amount",
          "type": "uint256"
        }
      ],
      "name": "getReturn",
      "outputs": [
        {
          "name": "",
          "type": "uint256"
        }
      ],
      "payable": false,
      "stateMutability": "view",
      "type": "function"
    }
  ],
  "bytecode": "0x608060405234801561001057600080fd5b506040516020806100f2833981016040525160005560bf806100336000396000f300608060405260043610603e5763ffffffff7c01000000000000000000000000000000000000000000000000000000006000350416631e1401f881146043575b600080fd5b348015604e57600080fd5b50607773ffffffffffffffffffffffffffffffffffffffff600435811690602435166044356089565b60408051918252519081900360200190f35b60005493925050505600a165627a7a72305820ca098f87a166fb9e1886c432e850b35f66d5e561e1c3d1aad684bbebb1966ec20029",
  "source": "pragma solidity ^0.4.24;\nimport '../BancorNetwork.sol';\n\ncontract OldBancorConverter {\n    uint256 private amount;\n\n    constructor(uint256 _amount) public {\n        amount = _amount;\n    }\n\n    function getReturn(IERC20Token _fromToken, IERC20Token _toToken, uint256 _amount) external view returns (uint256) {\n        _fromToken;\n        _toToken;\n        _amount;\n        return (amount);\n    }\n}\n\ncontract NewBancorConverter {\n    uint256 private amount;\n    uint256 private fee;\n\n    constructor(uint256 _amount, uint256 _fee) public {\n        amount = _amount;\n        fee = _fee;\n    }\n\n    function getReturn(IERC20Token _fromToken, IERC20Token _toToken, uint256 _amount) external view returns (uint256, uint256) {\n        _fromToken;\n        _toToken;\n        _amount;\n        return (amount, fee);\n    }\n}\n\ncontract TestBancorNetwork is BancorNetwork {\n    OldBancorConverter private oldBancorConverter;\n    NewBancorConverter private newBancorConverter;\n\n    constructor(uint256 _amount, uint256 _fee) public BancorNetwork(IContractRegistry(address(1))) {\n        oldBancorConverter = new OldBancorConverter(_amount);\n        newBancorConverter = new NewBancorConverter(_amount, _fee);\n    }\n\n    function getReturnOld() external view returns (uint256, uint256) {\n        return getReturn(address(oldBancorConverter), IERC20Token(0), IERC20Token(0), uint256(0));\n    }\n\n    function getReturnNew() external view returns (uint256, uint256) {\n        return getReturn(address(newBancorConverter), IERC20Token(0), IERC20Token(0), uint256(0));\n    }\n}\n",
  "sourcePath": "/Users/Nick/WebstormProjects/BancorOriginal/solidity/contracts/helpers/TestBancorNetwork.sol",
  "compiler": {
    "name": "solc",
    "version": "0.4.24+commit.e67f0147.Emscripten.clang"
  },
  "schemaVersion": "3.0.16",
  "updatedAt": "2019-12-04T00:14:08.318Z",
  "devdoc": {
    "methods": {}
  },
  "userdoc": {
    "methods": {}
  }
}