{
  "contractName": "TestCrowdsaleController",
  "abi": [
    {
      "constant": true,
      "inputs": [],
      "name": "BTCS_ETHER_CAP",
      "outputs": [
        {
          "name": "",
          "type": "uint256"
        }
      ],
      "payable": false,
      "stateMutability": "view",
      "type": "function"
    },
    {
      "constant": true,
      "inputs": [],
      "name": "TOKEN_PRICE_D",
      "outputs": [
        {
          "name": "",
          "type": "uint256"
        }
      ],
      "payable": false,
      "stateMutability": "view",
      "type": "function"
    },
    {
      "constant": false,
      "inputs": [],
      "name": "contributeETH",
      "outputs": [
        {
          "name": "amount",
          "type": "uint256"
        }
      ],
      "payable": true,
      "stateMutability": "payable",
      "type": "function"
    },
    {
      "constant": true,
      "inputs": [],
      "name": "DURATION",
      "outputs": [
        {
          "name": "",
          "type": "uint256"
        }
      ],
      "payable": false,
      "stateMutability": "view",
      "type": "function"
    },
    {
      "constant": true,
      "inputs": [
        {
          "name": "_contribution",
          "type": "uint256"
        }
      ],
      "name": "computeReturn",
      "outputs": [
        {
          "name": "",
          "type": "uint256"
        }
      ],
      "payable": false,
      "stateMutability": "pure",
      "type": "function"
    },
    {
      "constant": false,
      "inputs": [
        {
          "name": "_newOwner",
          "type": "address"
        }
      ],
      "name": "transferTokenOwnership",
      "outputs": [],
      "payable": false,
      "stateMutability": "nonpayable",
      "type": "function"
    },
    {
      "constant": true,
      "inputs": [],
      "name": "endTime",
      "outputs": [
        {
          "name": "",
          "type": "uint256"
        }
      ],
      "payable": false,
      "stateMutability": "view",
      "type": "function"
    },
    {
      "constant": true,
      "inputs": [],
      "name": "totalEtherCap",
      "outputs": [
        {
          "name": "",
          "type": "uint256"
        }
      ],
      "payable": false,
      "stateMutability": "view",
      "type": "function"
    },
    {
      "constant": false,
      "inputs": [],
      "name": "acceptTokenOwnership",
      "outputs": [],
      "payable": false,
      "stateMutability": "nonpayable",
      "type": "function"
    },
    {
      "constant": true,
      "inputs": [],
      "name": "beneficiary",
      "outputs": [
        {
          "name": "",
          "type": "address"
        }
      ],
      "payable": false,
      "stateMutability": "view",
      "type": "function"
    },
    {
      "constant": false,
      "inputs": [
        {
          "name": "_token",
          "type": "address"
        },
        {
          "name": "_to",
          "type": "address"
        },
        {
          "name": "_amount",
          "type": "uint256"
        }
      ],
      "name": "withdrawFromToken",
      "outputs": [],
      "payable": false,
      "stateMutability": "nonpayable",
      "type": "function"
    },
    {
      "constant": true,
      "inputs": [],
      "name": "TOKEN_PRICE_N",
      "outputs": [
        {
          "name": "",
          "type": "uint256"
        }
      ],
      "payable": false,
      "stateMutability": "view",
      "type": "function"
    },
    {
      "constant": true,
      "inputs": [],
      "name": "version",
      "outputs": [
        {
          "name": "",
          "type": "string"
        }
      ],
      "payable": false,
      "stateMutability": "view",
      "type": "function"
    },
    {
      "constant": false,
      "inputs": [
        {
          "name": "_token",
          "type": "address"
        },
        {
          "name": "_to",
          "type": "address"
        },
        {
          "name": "_amount",
          "type": "uint256"
        }
      ],
      "name": "withdrawTokens",
      "outputs": [],
      "payable": false,
      "stateMutability": "nonpayable",
      "type": "function"
    },
    {
      "constant": true,
      "inputs": [],
      "name": "startTime",
      "outputs": [
        {
          "name": "",
          "type": "uint256"
        }
      ],
      "payable": false,
      "stateMutability": "view",
      "type": "function"
    },
    {
      "constant": false,
      "inputs": [],
      "name": "acceptOwnership",
      "outputs": [],
      "payable": false,
      "stateMutability": "nonpayable",
      "type": "function"
    },
    {
      "constant": false,
      "inputs": [
        {
          "name": "_disable",
          "type": "bool"
        }
      ],
      "name": "disableTokenTransfers",
      "outputs": [],
      "payable": false,
      "stateMutability": "nonpayable",
      "type": "function"
    },
    {
      "constant": true,
      "inputs": [],
      "name": "owner",
      "outputs": [
        {
          "name": "",
          "type": "address"
        }
      ],
      "payable": false,
      "stateMutability": "view",
      "type": "function"
    },
    {
      "constant": true,
      "inputs": [],
      "name": "realEtherCapHash",
      "outputs": [
        {
          "name": "",
          "type": "bytes32"
        }
      ],
      "payable": false,
      "stateMutability": "view",
      "type": "function"
    },
    {
      "constant": false,
      "inputs": [
        {
          "name": "_cap",
          "type": "uint256"
        },
        {
          "name": "_key",
          "type": "uint256"
        }
      ],
      "name": "enableRealCap",
      "outputs": [],
      "payable": false,
      "stateMutability": "nonpayable",
      "type": "function"
    },
    {
      "constant": false,
      "inputs": [],
      "name": "contributeBTCs",
      "outputs": [
        {
          "name": "amount",
          "type": "uint256"
        }
      ],
      "payable": true,
      "stateMutability": "payable",
      "type": "function"
    },
    {
      "constant": true,
      "inputs": [],
      "name": "totalEtherContributed",
      "outputs": [
        {
          "name": "",
          "type": "uint256"
        }
      ],
      "payable": false,
      "stateMutability": "view",
      "type": "function"
    },
    {
      "constant": true,
      "inputs": [],
      "name": "btcs",
      "outputs": [
        {
          "name": "",
          "type": "address"
        }
      ],
      "payable": false,
      "stateMutability": "view",
      "type": "function"
    },
    {
      "constant": true,
      "inputs": [],
      "name": "newOwner",
      "outputs": [
        {
          "name": "",
          "type": "address"
        }
      ],
      "payable": false,
      "stateMutability": "view",
      "type": "function"
    },
    {
      "constant": true,
      "inputs": [
        {
          "name": "_cap",
          "type": "uint256"
        },
        {
          "name": "_key",
          "type": "uint256"
        }
      ],
      "name": "computeRealCap",
      "outputs": [
        {
          "name": "",
          "type": "bytes32"
        }
      ],
      "payable": false,
      "stateMutability": "pure",
      "type": "function"
    },
    {
      "constant": true,
      "inputs": [],
      "name": "MAX_GAS_PRICE",
      "outputs": [
        {
          "name": "",
          "type": "uint256"
        }
      ],
      "payable": false,
      "stateMutability": "view",
      "type": "function"
    },
    {
      "constant": true,
      "inputs": [],
      "name": "BTCS_ETHER_CAP_SMALL",
      "outputs": [
        {
          "name": "",
          "type": "uint256"
        }
      ],
      "payable": false,
      "stateMutability": "view",
      "type": "function"
    },
    {
      "constant": false,
      "inputs": [
        {
          "name": "_newOwner",
          "type": "address"
        }
      ],
      "name": "transferOwnership",
      "outputs": [],
      "payable": false,
      "stateMutability": "nonpayable",
      "type": "function"
    },
    {
      "constant": true,
      "inputs": [],
      "name": "token",
      "outputs": [
        {
          "name": "",
          "type": "address"
        }
      ],
      "payable": false,
      "stateMutability": "view",
      "type": "function"
    },
    {
      "inputs": [
        {
          "name": "_token",
          "type": "address"
        },
        {
          "name": "_startTime",
          "type": "uint256"
        },
        {
          "name": "_beneficiary",
          "type": "address"
        },
        {
          "name": "_btcs",
          "type": "address"
        },
        {
          "name": "_realEtherCapHash",
          "type": "bytes32"
        },
        {
          "name": "_startTimeOverride",
          "type": "uint256"
        }
      ],
      "payable": false,
      "stateMutability": "nonpayable",
      "type": "constructor"
    },
    {
      "payable": true,
      "stateMutability": "payable",
      "type": "fallback"
    },
    {
      "anonymous": false,
      "inputs": [
        {
          "indexed": true,
          "name": "_contributor",
          "type": "address"
        },
        {
          "indexed": false,
          "name": "_amount",
          "type": "uint256"
        },
        {
          "indexed": false,
          "name": "_return",
          "type": "uint256"
        }
      ],
      "name": "Contribution",
      "type": "event"
    },
    {
      "anonymous": false,
      "inputs": [
        {
          "indexed": true,
          "name": "_prevOwner",
          "type": "address"
        },
        {
          "indexed": true,
          "name": "_newOwner",
          "type": "address"
        }
      ],
      "name": "OwnerUpdate",
      "type": "event"
    }
  ],
  "bytecode": "0x60c0604052600360808190527f302e31000000000000000000000000000000000000000000000000000000000060a09081526200003e9190816200019a565b5060006004819055600581905569d3c21bcecceda100000060065560075560098054600160a060020a0319908116909155600a805490911690553480156200008557600080fd5b5060405160c0806200117683398101604090815281516020830151918301516060840151608085015160a09095015160008054600160a060020a031916331790559294919290919085858585858480600160a060020a0381161515620000ea57600080fd5b5060028054600160a060020a031916600160a060020a039283161790558390811615156200011757600080fd5b82600160a060020a03811615156200012e57600080fd5b854281116200013957fe5b83600081116200014857600080fd5b505060098054600160a060020a03968716600160a060020a031991821617909155600a8054959096169416939093179093556008555050506004829055506212750001600555506200023f9350505050565b828054600181600116156101000203166002900490600052602060002090601f016020900481019282601f10620001dd57805160ff19168380011785556200020d565b828001600101855582156200020d579182015b828111156200020d578251825591602001919060010190620001f0565b506200021b9291506200021f565b5090565b6200023c91905b808211156200021b576000815560010162000226565b90565b610f27806200024f6000396000f30060806040526004361061015b5763ffffffff60e060020a60003504166301d1c7fd81146101665780630d2806ad1461018d578063175323a8146101a25780631be05289146101aa5780631fc3a519146101bf57806321e6b53d146101d75780633197cbb6146101fa57806334971dd61461020f57806338a5e0161461022457806338af3eed1461023957806341a5b33d1461026a57806345cfad3e1461029457806354fd4d50146102a95780635e35359e1461033357806378e979251461035d57806379ba50971461037257806385d5e631146103875780638da5cb5b146103a1578063aa4bdd3b146103b6578063ad03abc5146103cb578063b3cffc6e146103e6578063b591fc69146103ee578063bb63224414610403578063d4ee1d9014610418578063e2119c801461042d578063e3bbb4f114610448578063ebaf2f3a1461045d578063f2fde38b14610472578063fc0c546a14610493575b6101636104a8565b50005b34801561017257600080fd5b5061017b6104d6565b60408051918252519081900360200190f35b34801561019957600080fd5b5061017b6104e4565b61017b6104a8565b3480156101b657600080fd5b5061017b6104e9565b3480156101cb57600080fd5b5061017b6004356104f0565b3480156101e357600080fd5b506101f8600160a060020a036004351661051a565b005b34801561020657600080fd5b5061017b6105b3565b34801561021b57600080fd5b5061017b6105b9565b34801561023057600080fd5b506101f86105bf565b34801561024557600080fd5b5061024e610643565b60408051600160a060020a039092168252519081900360200190f35b34801561027657600080fd5b506101f8600160a060020a0360043581169060243516604435610652565b3480156102a057600080fd5b5061017b6106fc565b3480156102b557600080fd5b506102be610701565b6040805160208082528351818301528351919283929083019185019080838360005b838110156102f85781810151838201526020016102e0565b50505050905090810190601f1680156103255780820380516001836020036101000a031916815260200191505b509250505060405180910390f35b34801561033f57600080fd5b506101f8600160a060020a036004358116906024351660443561078f565b34801561036957600080fd5b5061017b61086c565b34801561037e57600080fd5b506101f8610872565b34801561039357600080fd5b506101f860043515156108fa565b3480156103ad57600080fd5b5061024e610978565b3480156103c257600080fd5b5061017b610987565b3480156103d757600080fd5b506101f860043560243561098d565b61017b610a95565b3480156103fa57600080fd5b5061017b610adf565b34801561040f57600080fd5b5061024e610ae5565b34801561042457600080fd5b5061024e610af4565b34801561043957600080fd5b5061017b600435602435610b03565b34801561045457600080fd5b5061017b610b8f565b34801561046957600080fd5b5061017b610b98565b34801561047e57600080fd5b506101f8600160a060020a0360043516610ba4565b34801561049f57600080fd5b5061024e610c05565b60006004546005548142101580156104bf57508042105b15156104c757fe5b6104cf610c14565b9250505090565b690a968163f0a57b40000081565b606481565b6212750081565b6000610514600161050884606463ffffffff610e8d16565b9063ffffffff610ec616565b92915050565b600054600160a060020a0316331461053157600080fd5b600254604080517ff2fde38b000000000000000000000000000000000000000000000000000000008152600160a060020a0384811660048301529151919092169163f2fde38b91602480830192600092919082900301818387803b15801561059857600080fd5b505af11580156105ac573d6000803e3d6000fd5b5050505050565b60055481565b60065481565b600054600160a060020a031633146105d657600080fd5b600260009054906101000a9004600160a060020a0316600160a060020a03166379ba50976040518163ffffffff1660e060020a028152600401600060405180830381600087803b15801561062957600080fd5b505af115801561063d573d6000803e3d6000fd5b50505050565b600954600160a060020a031681565b600054600160a060020a0316331461066957600080fd5b600254604080517f5e35359e000000000000000000000000000000000000000000000000000000008152600160a060020a03868116600483015285811660248301526044820185905291519190921691635e35359e91606480830192600092919082900301818387803b1580156106df57600080fd5b505af11580156106f3573d6000803e3d6000fd5b50505050505050565b600181565b6003805460408051602060026001851615610100026000190190941693909304601f810184900484028201840190925281815292918301828280156107875780601f1061075c57610100808354040283529160200191610787565b820191906000526020600020905b81548152906001019060200180831161076a57829003601f168201915b505050505081565b600054600160a060020a031633146107a657600080fd5b82600160a060020a03811615156107bc57600080fd5b82600160a060020a03811615156107d257600080fd5b83600160a060020a0381163014156107e957600080fd5b85600160a060020a031663a9059cbb86866040518363ffffffff1660e060020a0281526004018083600160a060020a0316600160a060020a0316815260200182815260200192505050600060405180830381600087803b15801561084c57600080fd5b505af1158015610860573d6000803e3d6000fd5b50505050505050505050565b60045481565b600154600160a060020a0316331461088957600080fd5b60015460008054604051600160a060020a0393841693909116917f343765429aea5a34b3ff6a3785a98a5abb2597aca87bfbb58632c173d585373a91a3600180546000805473ffffffffffffffffffffffffffffffffffffffff19908116600160a060020a03841617909155169055565b600054600160a060020a0316331461091157600080fd5b600254604080517f1608f18f00000000000000000000000000000000000000000000000000000000815283151560048201529051600160a060020a0390921691631608f18f9160248082019260009290919082900301818387803b15801561059857600080fd5b600054600160a060020a031681565b60085481565b600054600160a060020a031633146109a457600080fd5b600254604080517f8da5cb5b00000000000000000000000000000000000000000000000000000000815290513092600160a060020a031691638da5cb5b9160048083019260209291908290030181600087803b158015610a0357600080fd5b505af1158015610a17573d6000803e3d6000fd5b505050506040513d6020811015610a2d57600080fd5b5051600160a060020a031614610a4257600080fd5b600454600554814210158015610a5757508042105b1515610a5f57fe5b60085484908490610a708383610b03565b14610a7a57600080fd5b6006548610610a8857600080fd5b5050506006929092555050565b600a54600090600160a060020a03163314610aac57fe5b34671bc16d674ec80000610acb82600754610ee990919063ffffffff16565b1115610ad357fe5b6004544281116104c757fe5b60075481565b600a54600160a060020a031681565b600154600160a060020a031681565b6000828260405160200180838152602001828152602001925050506040516020818303038152906040526040518082805190602001908083835b60208310610b5c5780518252601f199092019160209182019101610b3d565b5181516020939093036101000a600019018019909116921691909117905260405192018290039091209695505050505050565b640ba43b740081565b671bc16d674ec8000081565b600054600160a060020a03163314610bbb57600080fd5b600054600160a060020a0382811691161415610bd657600080fd5b6001805473ffffffffffffffffffffffffffffffffffffffff1916600160a060020a0392909216919091179055565b600254600160a060020a031681565b60008030600160a060020a0316600260009054906101000a9004600160a060020a0316600160a060020a0316638da5cb5b6040518163ffffffff1660e060020a028152600401602060405180830381600087803b158015610c7457600080fd5b505af1158015610c88573d6000803e3d6000fd5b505050506040513d6020811015610c9e57600080fd5b5051600160a060020a031614610cb357600080fd5b34600654610ccc82600754610ee990919063ffffffff16565b1115610cd457fe5b640ba43b74003a1115610ce357fe5b610cec346104f0565b600954604051919350600160a060020a0316903480156108fc02916000818181858888f19350505050158015610d26573d6000803e3d6000fd5b50600754610d3a903463ffffffff610ee916565b600755600254604080517f867904b4000000000000000000000000000000000000000000000000000000008152336004820152602481018590529051600160a060020a039092169163867904b49160448082019260009290919082900301818387803b158015610da957600080fd5b505af1158015610dbd573d6000803e3d6000fd5b5050600254600954604080517f867904b4000000000000000000000000000000000000000000000000000000008152600160a060020a03928316600482015260248101889052905191909216935063867904b49250604480830192600092919082900301818387803b158015610e3257600080fd5b505af1158015610e46573d6000803e3d6000fd5b5050604080513481526020810186905281513394507f5f7675b09617d2c9fa4fd13058ee5877a9538f626b0308816736e83748a4504093509081900390910190a250919050565b600080831515610ea05760009150610ebf565b50828202828482811515610eb057fe5b0414610ebb57600080fd5b8091505b5092915050565b600080808311610ed557600080fd5b8284811515610ee057fe5b04949350505050565b600082820183811015610ebb57600080fd00a165627a7a72305820a8de458eb162f0e84504ec3091e7a6599f596af4807b338b148b9d8dfe8d8c110029",
  "source": "pragma solidity ^0.4.24;\nimport '../crowdsale/CrowdsaleController.sol';\n\n/*\n    Test crowdsale controller with start time < now < end time\n*/\ncontract TestCrowdsaleController is CrowdsaleController {\n    using SafeMath for uint256;\n\n    \n    uint256 public constant BTCS_ETHER_CAP_SMALL = 2 ether; // maximum bitcoin suisse ether contribution\n\n    constructor(\n        ISmartToken _token,\n        uint256 _startTime,\n        address _beneficiary,\n        address _btcs,\n        bytes32 _realEtherCapHash,\n        uint256 _startTimeOverride)\n        public\n        CrowdsaleController(_token, _startTime, _beneficiary, _btcs, _realEtherCapHash)\n    {\n        startTime = _startTimeOverride;\n        endTime = startTime + DURATION;\n    }\n\n    modifier btcsEtherCapNotReached(uint256 _ethContribution) {\n        assert(totalEtherContributed.add(_ethContribution) <= BTCS_ETHER_CAP_SMALL);\n        _;\n    }\n}\n",
  "sourcePath": "/Users/Nick/WebstormProjects/BancorOriginal/solidity/contracts/helpers/TestCrowdsaleController.sol",
  "compiler": {
    "name": "solc",
    "version": "0.4.24+commit.e67f0147.Emscripten.clang"
  },
  "schemaVersion": "3.0.16",
  "updatedAt": "2019-12-04T00:14:08.329Z",
  "devdoc": {
    "methods": {
      "acceptOwnership()": {
        "details": "used by a new owner to accept an ownership transfer"
      },
      "acceptTokenOwnership()": {
        "details": "used by a new owner to accept a token ownership transfer can only be called by the contract owner"
      },
      "computeRealCap(uint256,uint256)": {
        "details": "computes the real cap based on the given cap & key",
        "params": {
          "_cap": "cap",
          "_key": "key used to compute the cap hash"
        },
        "return": "computed real cap hash"
      },
      "computeReturn(uint256)": {
        "details": "computes the number of tokens that should be issued for a given contribution",
        "params": {
          "_contribution": "contribution amount"
        },
        "return": "computed number of tokens"
      },
      "contributeBTCs()": {
        "details": "Contribution through BTCs (Bitcoin Suisse only) can only be called before the crowdsale started",
        "return": "tokens issued in return"
      },
      "contributeETH()": {
        "details": "ETH contribution can only be called during the crowdsale",
        "return": "tokens issued in return"
      },
      "disableTokenTransfers(bool)": {
        "details": "disables/enables token transfers can only be called by the contract owner",
        "params": {
          "_disable": "true to disable transfers, false to enable them"
        }
      },
      "enableRealCap(uint256,uint256)": {
        "details": "enables the real cap defined on deployment",
        "params": {
          "_cap": "predefined cap",
          "_key": "key used to compute the cap hash"
        }
      },
      "transferOwnership(address)": {
        "details": "allows transferring the contract ownership the new owner still needs to accept the transfer can only be called by the contract owner",
        "params": {
          "_newOwner": "new contract owner"
        }
      },
      "transferTokenOwnership(address)": {
        "details": "allows transferring the token ownership the new owner needs to accept the transfer can only be called by the contract owner",
        "params": {
          "_newOwner": "new token owner"
        }
      },
      "withdrawFromToken(address,address,uint256)": {
        "details": "withdraws tokens held by the controller and sends them to an account can only be called by the owner",
        "params": {
          "_amount": "amount to withdraw",
          "_to": "account to receive the new amount",
          "_token": "ERC20 token contract address"
        }
      },
      "withdrawTokens(address,address,uint256)": {
        "details": "withdraws tokens held by the contract and sends them to an account can only be called by the owner",
        "params": {
          "_amount": "amount to withdraw",
          "_to": "account to receive the new amount",
          "_token": "ERC20 token contract address"
        }
      }
    }
  },
  "userdoc": {
    "methods": {}
  }
}