{
  "contractName": "TestBancorNetwork",
  "abi": [
    {
      "constant": false,
      "inputs": [
        {
          "name": "_token",
          "type": "address"
        },
        {
          "name": "_register",
          "type": "bool"
        }
      ],
      "name": "registerEtherToken",
      "outputs": [],
      "payable": false,
      "stateMutability": "nonpayable",
      "type": "function"
    },
    {
      "constant": false,
      "inputs": [
        {
          "name": "_signerAddress",
          "type": "address"
        }
      ],
      "name": "setSignerAddress",
      "outputs": [],
      "payable": false,
      "stateMutability": "nonpayable",
      "type": "function"
    },
    {
      "constant": true,
      "inputs": [
        {
          "name": "_path",
          "type": "address[]"
        },
        {
          "name": "_amount",
          "type": "uint256"
        }
      ],
      "name": "getReturnByPath",
      "outputs": [
        {
          "name": "",
          "type": "uint256"
        },
        {
          "name": "",
          "type": "uint256"
        }
      ],
      "payable": false,
      "stateMutability": "view",
      "type": "function"
    },
    {
      "constant": true,
      "inputs": [],
      "name": "BANCOR_CONVERTER_UPGRADER",
      "outputs": [
        {
          "name": "",
          "type": "bytes32"
        }
      ],
      "payable": false,
      "stateMutability": "view",
      "type": "function"
    },
    {
      "constant": false,
      "inputs": [
        {
          "name": "_path",
          "type": "address[]"
        },
        {
          "name": "_amount",
          "type": "uint256"
        },
        {
          "name": "_minReturn",
          "type": "uint256"
        },
        {
          "name": "_for",
          "type": "address"
        },
        {
          "name": "_block",
          "type": "uint256"
        },
        {
          "name": "_nonce",
          "type": "uint256"
        },
        {
          "name": "_v",
          "type": "uint8"
        },
        {
          "name": "_r",
          "type": "bytes32"
        },
        {
          "name": "_s",
          "type": "bytes32"
        }
      ],
      "name": "convertForPrioritized",
      "outputs": [
        {
          "name": "",
          "type": "uint256"
        }
      ],
      "payable": true,
      "stateMutability": "payable",
      "type": "function"
    },
    {
      "constant": true,
      "inputs": [],
      "name": "BNT_TOKEN",
      "outputs": [
        {
          "name": "",
          "type": "bytes32"
        }
      ],
      "payable": false,
      "stateMutability": "view",
      "type": "function"
    },
    {
      "constant": true,
      "inputs": [],
      "name": "CONTRACT_REGISTRY",
      "outputs": [
        {
          "name": "",
          "type": "bytes32"
        }
      ],
      "payable": false,
      "stateMutability": "view",
      "type": "function"
    },
    {
      "constant": true,
      "inputs": [],
      "name": "BANCOR_CONVERTER_FACTORY",
      "outputs": [
        {
          "name": "",
          "type": "bytes32"
        }
      ],
      "payable": false,
      "stateMutability": "view",
      "type": "function"
    },
    {
      "constant": true,
      "inputs": [],
      "name": "signerAddress",
      "outputs": [
        {
          "name": "",
          "type": "address"
        }
      ],
      "payable": false,
      "stateMutability": "view",
      "type": "function"
    },
    {
      "constant": false,
      "inputs": [
        {
          "name": "_token",
          "type": "address"
        },
        {
          "name": "_to",
          "type": "address"
        },
        {
          "name": "_amount",
          "type": "uint256"
        }
      ],
      "name": "withdrawTokens",
      "outputs": [],
      "payable": false,
      "stateMutability": "nonpayable",
      "type": "function"
    },
    {
      "constant": true,
      "inputs": [],
      "name": "BNT_CONVERTER",
      "outputs": [
        {
          "name": "",
          "type": "bytes32"
        }
      ],
      "payable": false,
      "stateMutability": "view",
      "type": "function"
    },
    {
      "constant": false,
      "inputs": [
        {
          "name": "_path",
          "type": "address[]"
        },
        {
          "name": "_amount",
          "type": "uint256"
        },
        {
          "name": "_minReturn",
          "type": "uint256"
        },
        {
          "name": "_toBlockchain",
          "type": "bytes32"
        },
        {
          "name": "_to",
          "type": "bytes32"
        },
        {
          "name": "_conversionId",
          "type": "uint256"
        },
        {
          "name": "_block",
          "type": "uint256"
        },
        {
          "name": "_v",
          "type": "uint8"
        },
        {
          "name": "_r",
          "type": "bytes32"
        },
        {
          "name": "_s",
          "type": "bytes32"
        }
      ],
      "name": "xConvertPrioritized",
      "outputs": [
        {
          "name": "",
          "type": "uint256"
        }
      ],
      "payable": true,
      "stateMutability": "payable",
      "type": "function"
    },
    {
      "constant": false,
      "inputs": [
        {
          "name": "_path",
          "type": "address[]"
        },
        {
          "name": "_amount",
          "type": "uint256"
        },
        {
          "name": "_minReturn",
          "type": "uint256"
        },
        {
          "name": "_for",
          "type": "address"
        },
        {
          "name": "_block",
          "type": "uint256"
        },
        {
          "name": "_v",
          "type": "uint8"
        },
        {
          "name": "_r",
          "type": "bytes32"
        },
        {
          "name": "_s",
          "type": "bytes32"
        }
      ],
      "name": "convertForPrioritized2",
      "outputs": [
        {
          "name": "",
          "type": "uint256"
        }
      ],
      "payable": true,
      "stateMutability": "payable",
      "type": "function"
    },
    {
      "constant": true,
      "inputs": [],
      "name": "BANCOR_FORMULA",
      "outputs": [
        {
          "name": "",
          "type": "bytes32"
        }
      ],
      "payable": false,
      "stateMutability": "view",
      "type": "function"
    },
    {
      "constant": false,
      "inputs": [],
      "name": "acceptOwnership",
      "outputs": [],
      "payable": false,
      "stateMutability": "nonpayable",
      "type": "function"
    },
    {
      "constant": true,
      "inputs": [],
      "name": "registry",
      "outputs": [
        {
          "name": "",
          "type": "address"
        }
      ],
      "payable": false,
      "stateMutability": "view",
      "type": "function"
    },
    {
      "constant": true,
      "inputs": [
        {
          "name": "",
          "type": "address"
        }
      ],
      "name": "etherTokens",
      "outputs": [
        {
          "name": "",
          "type": "bool"
        }
      ],
      "payable": false,
      "stateMutability": "view",
      "type": "function"
    },
    {
      "constant": true,
      "inputs": [],
      "name": "CONTRACT_FEATURES",
      "outputs": [
        {
          "name": "",
          "type": "bytes32"
        }
      ],
      "payable": false,
      "stateMutability": "view",
      "type": "function"
    },
    {
      "constant": true,
      "inputs": [
        {
          "name": "",
          "type": "bytes32"
        }
      ],
      "name": "conversionHashes",
      "outputs": [
        {
          "name": "",
          "type": "bool"
        }
      ],
      "payable": false,
      "stateMutability": "view",
      "type": "function"
    },
    {
      "constant": true,
      "inputs": [],
      "name": "owner",
      "outputs": [
        {
          "name": "",
          "type": "address"
        }
      ],
      "payable": false,
      "stateMutability": "view",
      "type": "function"
    },
    {
      "constant": true,
      "inputs": [],
      "name": "BANCOR_NETWORK",
      "outputs": [
        {
          "name": "",
          "type": "bytes32"
        }
      ],
      "payable": false,
      "stateMutability": "view",
      "type": "function"
    },
    {
      "constant": true,
      "inputs": [],
      "name": "BANCOR_GAS_PRICE_LIMIT",
      "outputs": [
        {
          "name": "",
          "type": "bytes32"
        }
      ],
      "payable": false,
      "stateMutability": "view",
      "type": "function"
    },
    {
      "constant": true,
      "inputs": [],
      "name": "CONVERTER_CONVERSION_WHITELIST",
      "outputs": [
        {
          "name": "",
          "type": "uint256"
        }
      ],
      "payable": false,
      "stateMutability": "view",
      "type": "function"
    },
    {
      "constant": false,
      "inputs": [
        {
          "name": "_registry",
          "type": "address"
        }
      ],
      "name": "setRegistry",
      "outputs": [],
      "payable": false,
      "stateMutability": "nonpayable",
      "type": "function"
    },
    {
      "constant": false,
      "inputs": [
        {
          "name": "_path",
          "type": "address[]"
        },
        {
          "name": "_amount",
          "type": "uint256"
        },
        {
          "name": "_minReturn",
          "type": "uint256"
        },
        {
          "name": "_for",
          "type": "address"
        }
      ],
      "name": "claimAndConvertFor",
      "outputs": [
        {
          "name": "",
          "type": "uint256"
        }
      ],
      "payable": false,
      "stateMutability": "nonpayable",
      "type": "function"
    },
    {
      "constant": false,
      "inputs": [
        {
          "name": "_path",
          "type": "address[]"
        },
        {
          "name": "_amount",
          "type": "uint256"
        },
        {
          "name": "_minReturn",
          "type": "uint256"
        },
        {
          "name": "_for",
          "type": "address"
        },
        {
          "name": "_customVal",
          "type": "uint256"
        },
        {
          "name": "_block",
          "type": "uint256"
        },
        {
          "name": "_v",
          "type": "uint8"
        },
        {
          "name": "_r",
          "type": "bytes32"
        },
        {
          "name": "_s",
          "type": "bytes32"
        }
      ],
      "name": "convertForPrioritized3",
      "outputs": [
        {
          "name": "",
          "type": "uint256"
        }
      ],
      "payable": true,
      "stateMutability": "payable",
      "type": "function"
    },
    {
      "constant": true,
      "inputs": [],
      "name": "BANCOR_X",
      "outputs": [
        {
          "name": "",
          "type": "bytes32"
        }
      ],
      "payable": false,
      "stateMutability": "view",
      "type": "function"
    },
    {
      "constant": false,
      "inputs": [
        {
          "name": "_path",
          "type": "address[]"
        },
        {
          "name": "_amount",
          "type": "uint256"
        },
        {
          "name": "_minReturn",
          "type": "uint256"
        },
        {
          "name": "_toBlockchain",
          "type": "bytes32"
        },
        {
          "name": "_to",
          "type": "bytes32"
        },
        {
          "name": "_conversionId",
          "type": "uint256"
        }
      ],
      "name": "xConvert",
      "outputs": [
        {
          "name": "",
          "type": "uint256"
        }
      ],
      "payable": true,
      "stateMutability": "payable",
      "type": "function"
    },
    {
      "constant": false,
      "inputs": [
        {
          "name": "_path",
          "type": "address[]"
        },
        {
          "name": "_amount",
          "type": "uint256"
        },
        {
          "name": "_minReturn",
          "type": "uint256"
        }
      ],
      "name": "claimAndConvert",
      "outputs": [
        {
          "name": "",
          "type": "uint256"
        }
      ],
      "payable": false,
      "stateMutability": "nonpayable",
      "type": "function"
    },
    {
      "constant": false,
      "inputs": [
        {
          "name": "_path",
          "type": "address[]"
        },
        {
          "name": "_amount",
          "type": "uint256"
        },
        {
          "name": "_minReturn",
          "type": "uint256"
        },
        {
          "name": "_for",
          "type": "address"
        }
      ],
      "name": "convertFor",
      "outputs": [
        {
          "name": "",
          "type": "uint256"
        }
      ],
      "payable": true,
      "stateMutability": "payable",
      "type": "function"
    },
    {
      "constant": true,
      "inputs": [],
      "name": "BANCOR_X_UPGRADER",
      "outputs": [
        {
          "name": "",
          "type": "bytes32"
        }
      ],
      "payable": false,
      "stateMutability": "view",
      "type": "function"
    },
    {
      "constant": true,
      "inputs": [],
      "name": "newOwner",
      "outputs": [
        {
          "name": "",
          "type": "address"
        }
      ],
      "payable": false,
      "stateMutability": "view",
      "type": "function"
    },
    {
      "constant": false,
      "inputs": [
        {
          "name": "_newOwner",
          "type": "address"
        }
      ],
      "name": "transferOwnership",
      "outputs": [],
      "payable": false,
      "stateMutability": "nonpayable",
      "type": "function"
    },
    {
      "constant": false,
      "inputs": [
        {
          "name": "_path",
          "type": "address[]"
        },
        {
          "name": "_amount",
          "type": "uint256"
        },
        {
          "name": "_minReturn",
          "type": "uint256"
        }
      ],
      "name": "convert",
      "outputs": [
        {
          "name": "",
          "type": "uint256"
        }
      ],
      "payable": true,
      "stateMutability": "payable",
      "type": "function"
    },
    {
      "constant": true,
      "inputs": [],
      "name": "NON_STANDARD_TOKEN_REGISTRY",
      "outputs": [
        {
          "name": "",
          "type": "bytes32"
        }
      ],
      "payable": false,
      "stateMutability": "view",
      "type": "function"
    },
    {
      "inputs": [
        {
          "name": "_amount",
          "type": "uint256"
        },
        {
          "name": "_fee",
          "type": "uint256"
        }
      ],
      "payable": false,
      "stateMutability": "nonpayable",
      "type": "constructor"
    },
    {
      "anonymous": false,
      "inputs": [
        {
          "indexed": true,
          "name": "_prevOwner",
          "type": "address"
        },
        {
          "indexed": true,
          "name": "_newOwner",
          "type": "address"
        }
      ],
      "name": "OwnerUpdate",
      "type": "event"
    },
    {
      "constant": true,
      "inputs": [],
      "name": "getReturnOld",
      "outputs": [
        {
          "name": "",
          "type": "uint256"
        },
        {
          "name": "",
          "type": "uint256"
        }
      ],
      "payable": false,
      "stateMutability": "view",
      "type": "function"
    },
    {
      "constant": true,
      "inputs": [],
      "name": "getReturnNew",
      "outputs": [
        {
          "name": "",
          "type": "uint256"
        },
        {
          "name": "",
          "type": "uint256"
        }
      ],
      "payable": false,
      "stateMutability": "view",
      "type": "function"
    }
  ],
  "bytecode": "0x608060405260028054600160a060020a03191690553480156200002157600080fd5b506040516040806200354f8339810160405280516020909101516000805433600160a060020a03199182161790915560038054909116600117905581620000676200010a565b90815260405190819003602001906000f0801580156200008b573d6000803e3d6000fd5b5060068054600160a060020a031916600160a060020a03929092169190911790558181620000b86200011a565b9182526020820152604080519182900301906000f080158015620000e0573d6000803e3d6000fd5b5060078054600160a060020a031916600160a060020a0392909216919091179055506200012b9050565b60405160f2806200335383390190565b60405161010a806200344583390190565b613218806200013b6000396000f3006080604052600436106101b35763ffffffff60e060020a60003504166302ef521e81146101b8578063046dc166146101e05780630c8496cc146102015780630c87355e146102715780631134269a146102985780631d000b611461031557806325f9bfef1461032a5780635a46f06c1461033f5780635b7633d0146103545780635e35359e1461038557806362614ae6146103af5780636896b999146103c4578063699e75461461043f5780636b08f2ef146104545780636d7bd3fc146104cb57806379ba5097146104e05780637b103999146104f55780638077ccf71461050a57806383315b6e1461053f57806389e63a60146105545780638da5cb5b1461056c5780639232494e146105815780639249993a1461059657806392d1abb7146105ab57806398e95740146105c0578063a91ee0dc146105d5578063b1e9932b146105f6578063b406d38614610661578063c4a8598e146106de578063c52173de146106f3578063c7ba24bc14610752578063c98fefed146107b0578063cc97b38f1461080e578063d4ee1d9014610823578063f2fde38b14610838578063f3898a9714610859578063f5286b9c146108aa575b600080fd5b3480156101c457600080fd5b506101de600160a060020a036004351660243515156108bf565b005b3480156101ec57600080fd5b506101de600160a060020a0360043516610930565b34801561020d57600080fd5b50604080516020600480358082013583810280860185019096528085526102589536959394602494938501929182918501908490808284375094975050933594506109a59350505050565b6040805192835260208301919091528051918290030190f35b34801561027d57600080fd5b50610286611170565b60408051918252519081900360200190f35b604080516020600480358082013583810280860185019096528085526102869536959394602494938501929182918501908490808284375094975050843595505050602083013592600160a060020a0360408201351692506060810135915060808101359060ff60a0820135169060c08101359060e00135611194565b34801561032157600080fd5b506102866111b5565b34801561033657600080fd5b506102866111d9565b34801561034b57600080fd5b506102866111fd565b34801561036057600080fd5b50610369611221565b60408051600160a060020a039092168252519081900360200190f35b34801561039157600080fd5b506101de600160a060020a0360043581169060243516604435611230565b3480156103bb57600080fd5b5061028661130d565b604080516020600480358082013583810280860185019096528085526102869536959394602494938501929182918501908490808284375094975050843595505050602083013592604081013592506060810135915060808101359060a08101359060ff60c0820135169060e0810135906101000135611331565b34801561044b57600080fd5b506102586114a6565b604080516020600480358082013583810280860185019096528085526102869536959394602494938501929182918501908490808284375094975050843595505050602083013592600160a060020a0360408201351692506060810135915060ff6080820135169060a08101359060c001356114cb565b3480156104d757600080fd5b506102866114eb565b3480156104ec57600080fd5b506101de61150f565b34801561050157600080fd5b50610369611597565b34801561051657600080fd5b5061052b600160a060020a03600435166115a6565b604080519115158252519081900360200190f35b34801561054b57600080fd5b506102866115bb565b34801561056057600080fd5b5061052b6004356115df565b34801561057857600080fd5b506103696115f4565b34801561058d57600080fd5b50610286611603565b3480156105a257600080fd5b50610286611627565b3480156105b757600080fd5b5061028661164b565b3480156105cc57600080fd5b50610258611650565b3480156105e157600080fd5b506101de600160a060020a036004351661166d565b34801561060257600080fd5b5060408051602060048035808201358381028086018501909652808552610286953695939460249493850192918291850190849080828437509497505084359550505060208301359260400135600160a060020a031691506116e29050565b604080516020600480358082013583810280860185019096528085526102869536959394602494938501929182918501908490808284375094975050843595505050602083013592600160a060020a0360408201351692506060810135915060808101359060ff60a0820135169060c08101359060e00135611722565b3480156106ea57600080fd5b506102866117fd565b604080516020600480358082013583810280860185019096528085526102869536959394602494938501929182918501908490808284375094975050843595505050602083013592604081013592506060810135915060800135611821565b34801561075e57600080fd5b5060408051602060048035808201358381028086018501909652808552610286953695939460249493850192918291850190849080828437509497505084359550505060209092013591506118409050565b60408051602060048035808201358381028086018501909652808552610286953695939460249493850192918291850190849080828437509497505084359550505060208301359260400135600160a060020a031691506118569050565b34801561081a57600080fd5b50610286611872565b34801561082f57600080fd5b50610369611896565b34801561084457600080fd5b506101de600160a060020a03600435166118a5565b60408051602060048035808201358381028086018501909652808552610286953695939460249493850192918291850190849080828437509497505084359550505060209092013591506119069050565b3480156108b657600080fd5b50610286611914565b600054600160a060020a031633146108d657600080fd5b81600160a060020a03811615156108ec57600080fd5b82600160a060020a03811630141561090357600080fd5b5050600160a060020a03919091166000908152600460205260409020805460ff1916911515919091179055565b600054600160a060020a0316331461094757600080fd5b80600160a060020a038116151561095d57600080fd5b81600160a060020a03811630141561097457600080fd5b50506002805473ffffffffffffffffffffffffffffffffffffffff1916600160a060020a0392909216919091179055565b600080600080600080600080600080600080600080600360009054906101000a9004600160a060020a0316600160a060020a03166321f8a7217f42616e636f72466f726d756c61000000000000000000000000000000000000006040518263ffffffff1660e060020a028152600401808260001916600019168152602001915050602060405180830381600087803b158015610a4057600080fd5b505af1158015610a54573d6000803e3d6000fd5b505050506040513d6020811015610a6a57600080fd5b810190808051906020019092919050505091508e97508f6000815181101515610a8f57fe5b906020019060200201519b50600190505b8f5181101561115a578f81815181101515610ab757fe5b906020019060200201519a508f81600101815181101515610ad457fe5b9060200190602002015199508a600160a060020a0316638da5cb5b6040518163ffffffff1660e060020a028152600401602060405180830381600087803b158015610b1e57600080fd5b505af1158015610b32573d6000803e3d6000fd5b505050506040513d6020811015610b4857600080fd5b50519850600160a060020a038a8116908c161415610e6e5782600160a060020a03168b600160a060020a031614610be8578a600160a060020a03166318160ddd6040518163ffffffff1660e060020a028152600401602060405180830381600087803b158015610bb757600080fd5b505af1158015610bcb573d6000803e3d6000fd5b505050506040513d6020811015610be157600080fd5b5051610bea565b855b9550610bf6898d611938565b1515610c0157600080fd5b88600160a060020a031663d89595128d6040518263ffffffff1660e060020a0281526004018082600160a060020a0316600160a060020a03168152602001915050602060405180830381600087803b158015610c5c57600080fd5b505af1158015610c70573d6000803e3d6000fd5b505050506040513d6020811015610c8657600080fd5b50519450610c94898d6119d7565b604080517f29a00e7c000000000000000000000000000000000000000000000000000000008152600481018990526024810188905263ffffffff83166044820152606481018b90529051919550600160a060020a038416916329a00e7c916084808201926020929091908290030181600087803b158015610d1457600080fd5b505af1158015610d28573d6000803e3d6000fd5b505050506040513d6020811015610d3e57600080fd5b5051604080517f579cd3ca0000000000000000000000000000000000000000000000000000000081529051919950610df491620f424091610de891600160a060020a038e169163579cd3ca9160048083019260209291908290030181600087803b158015610dab57600080fd5b505af1158015610dbf573d6000803e3d6000fd5b505050506040513d6020811015610dd557600080fd5b50518b9063ffffffff90811690611a7616565b9063ffffffff611aaf16565b96508688039750878b600160a060020a03166318160ddd6040518163ffffffff1660e060020a028152600401602060405180830381600087803b158015610e3a57600080fd5b505af1158015610e4e573d6000803e3d6000fd5b505050506040513d6020811015610e6457600080fd5b505101955061114a565b8a600160a060020a03168c600160a060020a031614156111385782600160a060020a03168b600160a060020a031614610f10578a600160a060020a03166318160ddd6040518163ffffffff1660e060020a028152600401602060405180830381600087803b158015610edf57600080fd5b505af1158015610ef3573d6000803e3d6000fd5b505050506040513d6020811015610f0957600080fd5b5051610f12565b855b955088600160a060020a031663d89595128b6040518263ffffffff1660e060020a0281526004018082600160a060020a0316600160a060020a03168152602001915050602060405180830381600087803b158015610f6f57600080fd5b505af1158015610f83573d6000803e3d6000fd5b505050506040513d6020811015610f9957600080fd5b50519450610fa7898b6119d7565b604080517f49f9b0f7000000000000000000000000000000000000000000000000000000008152600481018990526024810188905263ffffffff83166044820152606481018b90529051919550600160a060020a038416916349f9b0f7916084808201926020929091908290030181600087803b15801561102757600080fd5b505af115801561103b573d6000803e3d6000fd5b505050506040513d602081101561105157600080fd5b5051604080517f579cd3ca00000000000000000000000000000000000000000000000000000000815290519199506110be91620f424091610de891600160a060020a038e169163579cd3ca9160048083019260209291908290030181600087803b158015610dab57600080fd5b96508688039750878b600160a060020a03166318160ddd6040518163ffffffff1660e060020a028152600401602060405180830381600087803b15801561110457600080fd5b505af1158015611118573d6000803e3d6000fd5b505050506040513d602081101561112e57600080fd5b505103955061114a565b611144898d8c8b611ad2565b90985096505b989a508a988a9250600201610aa0565b50959e949d50939b505050505050505050505050565b7f42616e636f72436f6e766572746572557067726164657200000000000000000081565b60006111a78a8a8a8a8d8b8a8a8a611722565b9a9950505050505050505050565b7f424e54546f6b656e00000000000000000000000000000000000000000000000081565b7f436f6e747261637452656769737472790000000000000000000000000000000081565b7f42616e636f72436f6e766572746572466163746f72790000000000000000000081565b600254600160a060020a031681565b600054600160a060020a0316331461124757600080fd5b82600160a060020a038116151561125d57600080fd5b82600160a060020a038116151561127357600080fd5b83600160a060020a03811630141561128a57600080fd5b85600160a060020a031663a9059cbb86866040518363ffffffff1660e060020a0281526004018083600160a060020a0316600160a060020a0316815260200182815260200192505050600060405180830381600087803b1580156112ed57600080fd5b505af1158015611301573d6000803e3d6000fd5b50505050505050505050565b7f424e54436f6e766572746572000000000000000000000000000000000000000081565b6000806113428c8c88888888611bee565b6113678c8c8c8f600081518110151561135757fe5b9060200190602002015130611f20565b6003546040805160e260020a632ecd14d30281527f42616e636f72580000000000000000000000000000000000000000000000000060048201529051929450600160a060020a03909116925063bb34534c9160248083019260209291908290030181600087803b1580156113da57600080fd5b505af11580156113ee573d6000803e3d6000fd5b505050506040513d602081101561140457600080fd5b5051604080517f427c0374000000000000000000000000000000000000000000000000000000008152600481018c9052602481018b905260448101849052606481018a90529051600160a060020a039092169163427c03749160848082019260009290919082900301818387803b15801561147e57600080fd5b505af1158015611492573d6000803e3d6000fd5b50929e9d5050505050505050505050505050565b60075460009081906114c390600160a060020a0316828080611ad2565b915091509091565b60006114de898989898c8a8a8a8a611722565b9998505050505050505050565b7f42616e636f72466f726d756c610000000000000000000000000000000000000081565b600154600160a060020a0316331461152657600080fd5b60015460008054604051600160a060020a0393841693909116917f343765429aea5a34b3ff6a3785a98a5abb2597aca87bfbb58632c173d585373a91a3600180546000805473ffffffffffffffffffffffffffffffffffffffff19908116600160a060020a03841617909155169055565b600354600160a060020a031681565b60046020526000908152604090205460ff1681565b7f436f6e747261637446656174757265730000000000000000000000000000000081565b60056020526000908152604090205460ff1681565b600054600160a060020a031681565b7f42616e636f724e6574776f726b0000000000000000000000000000000000000081565b7f42616e636f7247617350726963654c696d69740000000000000000000000000081565b600181565b60065460009081906114c390600160a060020a0316828080611ad2565b600054600160a060020a0316331461168457600080fd5b80600160a060020a038116151561169a57600080fd5b81600160a060020a0381163014156116b157600080fd5b50506003805473ffffffffffffffffffffffffffffffffffffffff1916600160a060020a0392909216919091179055565b6000808560008151811015156116f457fe5b90602001906020020151905061170c8133308861218f565b61171886868686611856565b9695505050505050565b6000808a600081518110151561173457fe5b90602001906020020151905034600014806117715750348a1480156117715750600160a060020a03811660009081526004602052604090205460ff165b151561177c57600080fd5b60003411156117dd5780600160a060020a031663d0e30db0346040518263ffffffff1660e060020a0281526004016000604051808303818588803b1580156117c357600080fd5b505af11580156117d7573d6000803e3d6000fd5b50505050505b6117ee8b8b8b8b8b8b8b8b8b612527565b9b9a5050505050505050505050565b7f42616e636f72580000000000000000000000000000000000000000000000000081565b600061183587878787878787808080611331565b979650505050505050565b600061184e848484336116e2565b949350505050565b6000611869858585858286808080611722565b95945050505050565b7f42616e636f72585570677261646572000000000000000000000000000000000081565b600154600160a060020a031681565b600054600160a060020a031633146118bc57600080fd5b600054600160a060020a03828116911614156118d757600080fd5b6001805473ffffffffffffffffffffffffffffffffffffffff1916600160a060020a0392909216919091179055565b600061184e84848433611856565b7f4e6f6e5374616e64617264546f6b656e5265676973747279000000000000000081565b60008060008060008087600160a060020a0316630e53aae9886040518263ffffffff1660e060020a0281526004018082600160a060020a0316600160a060020a0316815260200191505060a060405180830381600087803b15801561199c57600080fd5b505af11580156119b0573d6000803e3d6000fd5b505050506040513d60a08110156119c657600080fd5b506060015198975050505050505050565b60008060008060008087600160a060020a0316630e53aae9886040518263ffffffff1660e060020a0281526004018082600160a060020a0316600160a060020a0316815260200191505060a060405180830381600087803b158015611a3b57600080fd5b505af1158015611a4f573d6000803e3d6000fd5b505050506040513d60a0811015611a6557600080fd5b506020015198975050505050505050565b600080831515611a895760009150611aa8565b50828202828482811515611a9957fe5b0414611aa457600080fd5b8091505b5092915050565b600080808311611abe57600080fd5b8284811515611ac957fe5b04949350505050565b600080611add6131d1565b604080517f67657452657475726e28616464726573732c616464726573732c75696e74323581527f36290000000000000000000000000000000000000000000000000000000000006020808301919091528251918290036022018220600160a060020a03808b166024850152891660448401526064808401899052845180850390910181526084909301845290820180517bffffffffffffffffffffffffffffffffffffffffffffffffffffffff167fffffffff0000000000000000000000000000000000000000000000000000000060e060020a9384900490930292909216919091178152815191929184918b5afa1515611bd857600080fd5b5080516020909101519097909650945050505050565b6000808760028151118015611c0557506015815111155b8015611c1657508051600290066001145b1515611c2157600080fd5b886000815181101515611c3057fe5b9060200190602002015192503460001480611c6d57503488148015611c6d5750600160a060020a03831660009081526004602052604090205460ff165b1515611c7857600080fd5b6003546040805160e260020a632ecd14d30281527f424e54546f6b656e00000000000000000000000000000000000000000000000060048201529051600160a060020a039092169163bb34534c916024808201926020929091908290030181600087803b158015611ce857600080fd5b505af1158015611cfc573d6000803e3d6000fd5b505050506040513d6020811015611d1257600080fd5b50518951600160a060020a03909116908a906000198101908110611d3257fe5b60209081029091010151600160a060020a031614611d4f57600080fd5b6000341115611db45782600160a060020a031663d0e30db0346040518263ffffffff1660e060020a0281526004016000604051808303818588803b158015611d9657600080fd5b505af1158015611daa573d6000803e3d6000fd5b5050505050611dc0565b611dc08333308b61218f565b60ff8616158015611dcf575084155b8015611dd9575083155b15611efb576003546040805160e260020a632ecd14d30281527f42616e636f7247617350726963654c696d69740000000000000000000000000060048201529051600160a060020a039092169163bb34534c916024808201926020929091908290030181600087803b158015611e4e57600080fd5b505af1158015611e62573d6000803e3d6000fd5b505050506040513d6020811015611e7857600080fd5b5051604080517f6b4dff1f0000000000000000000000000000000000000000000000000000000081523a60048201529051919350600160a060020a03841691636b4dff1f9160248082019260009290919082900301818387803b158015611ede57600080fd5b505af1158015611ef2573d6000803e3d6000fd5b50505050611f15565b611f0a898989338a8a8a61279e565b1515611f1557600080fd5b505050505050505050565b6003546040805160e260020a632ecd14d30281527f436f6e7472616374466561747572657300000000000000000000000000000000600482015290516000928392839283928392839283928392600160a060020a039091169163bb34534c9160248082019260209290919082900301818787803b158015611fa057600080fd5b505af1158015611fb4573d6000803e3d6000fd5b505050506040513d6020811015611fca57600080fd5b50518d519093509150600190505b8181101561217e578c81815181101515611fee57fe5b9060200190602002015195508c8160010181518110151561200b57fe5b90602001906020020151945085600160a060020a0316638da5cb5b6040518163ffffffff1660e060020a028152600401602060405180830381600087803b15801561205557600080fd5b505af1158015612069573d6000803e3d6000fd5b505050506040513d602081101561207f57600080fd5b5051935061208e848a85612a5d565b600160a060020a03868116908b16146120ac576120ac8a858e612c19565b83600160a060020a0316635e5144eb8b878f6002870386146120cf5760016120d1565b8f5b6040518563ffffffff1660e060020a0281526004018085600160a060020a0316600160a060020a0316815260200184600160a060020a0316600160a060020a03168152602001838152602001828152602001945050505050602060405180830381600087803b15801561214357600080fd5b505af1158015612157573d6000803e3d6000fd5b505050506040513d602081101561216d57600080fd5b50519b509398508893600201611fd8565b50929b999a50505050505050505050565b6003546040805160e260020a632ecd14d30281527f4e6f6e5374616e64617264546f6b656e526567697374727900000000000000006004820152905160009283928392600160a060020a039092169163bb34534c9160248082019260209290919082900301818787803b15801561220557600080fd5b505af1158015612219573d6000803e3d6000fd5b505050506040513d602081101561222f57600080fd5b5051604080517faeea10bd000000000000000000000000000000000000000000000000000000008152600160a060020a038a8116600483015291519295509085169163aeea10bd916024808201926020929091908290030181600087803b15801561229957600080fd5b505af11580156122ad573d6000803e3d6000fd5b505050506040513d60208110156122c357600080fd5b5051156124765786600160a060020a03166370a08231866040518263ffffffff1660e060020a0281526004018082600160a060020a0316600160a060020a03168152602001915050602060405180830381600087803b15801561232557600080fd5b505af1158015612339573d6000803e3d6000fd5b505050506040513d602081101561234f57600080fd5b5051604080517f23b872dd000000000000000000000000000000000000000000000000000000008152600160a060020a0389811660048301528881166024830152604482018890529151929450908916916323b872dd9160648082019260009290919082900301818387803b1580156123c757600080fd5b505af11580156123db573d6000803e3d6000fd5b5050505086600160a060020a03166370a08231866040518263ffffffff1660e060020a0281526004018082600160a060020a0316600160a060020a03168152602001915050602060405180830381600087803b15801561243a57600080fd5b505af115801561244e573d6000803e3d6000fd5b505050506040513d602081101561246457600080fd5b5051905081811161247157fe5b61251e565b604080517f23b872dd000000000000000000000000000000000000000000000000000000008152600160a060020a0388811660048301528781166024830152604482018790529151918916916323b872dd916064808201926020929091908290030181600087803b1580156124ea57600080fd5b505af11580156124fe573d6000803e3d6000fd5b505050506040513d602081101561251457600080fd5b5051151561251e57fe5b50505050505050565b6000806000808c6002815111801561254157506015815111155b801561255257508051600290066001145b151561255d57600080fd5b60ff881615801561256c575086155b8015612576575085155b15612698576003546040805160e260020a632ecd14d30281527f42616e636f7247617350726963654c696d69740000000000000000000000000060048201529051600160a060020a039092169163bb34534c916024808201926020929091908290030181600087803b1580156125eb57600080fd5b505af11580156125ff573d6000803e3d6000fd5b505050506040513d602081101561261557600080fd5b5051604080517f6b4dff1f0000000000000000000000000000000000000000000000000000000081523a60048201529051919550600160a060020a03861691636b4dff1f9160248082019260009290919082900301818387803b15801561267b57600080fd5b505af115801561268f573d6000803e3d6000fd5b505050506126b2565b6126a78e8b8b8e8c8c8c61279e565b15156126b257600080fd5b8d60008151811015156126c157fe5b9060200190602002015192506126da8e8e8e868f611f20565b600160a060020a038216600090815260046020526040902054909e5090925060ff16156127815781600160a060020a031663205c28788c8f6040518363ffffffff1660e060020a0281526004018083600160a060020a0316600160a060020a0316815260200182815260200192505050600060405180830381600087803b15801561276457600080fd5b505af1158015612778573d6000803e3d6000fd5b5050505061278c565b61278c828c8f612e53565b509a9c9b505050505050505050505050565b600080600080883a89338d8f6040516020018087815260200186815260200185600160a060020a0316600160a060020a03166c0100000000000000000000000002815260140184600160a060020a0316600160a060020a03166c01000000000000000000000000028152601401838152602001828051906020019060200280838360005b8381101561283a578181015183820152602001612822565b5050505090500196505050505050506040516020818303038152906040526040518082805190602001908083835b602083106128875780518252601f199092019160209182019101612868565b51815160209384036101000a6000190180199092169116179052604080519290940182900390912060008181526005909252929020549196505060ff161591505080156128d45750884311155b15156128df57600080fd5b604080517f19457468657265756d205369676e6564204d6573736167653a0a333200000000602080830191909152603c80830187905283518084039091018152605c90920192839052815191929182918401908083835b602083106129555780518252601f199092019160209182019101612936565b6001836020036101000a03801982511681845116808217855250505050505090500191505060405180910390209150600260009054906101000a9004600160a060020a0316600160a060020a0316600183898989604051600081526020016040526040518085600019166000191681526020018460ff1660ff1681526020018360001916600019168152602001826000191660001916815260200194505050505060206040516020810390808403906000865af1158015612a1a573d6000803e3d6000fd5b50505060206040510351600160a060020a031614905080156111a7576000838152600560205260409020805460ff191660011790559a9950505050505050505050565b604080517fa5fbf287000000000000000000000000000000000000000000000000000000008152600160a060020a03858116600483015260016024830152915160009284169163a5fbf28791604480830192602092919082900301818787803b158015612ac957600080fd5b505af1158015612add573d6000803e3d6000fd5b505050506040513d6020811015612af357600080fd5b50511515612b0057612c13565b83600160a060020a031663c45d3d926040518163ffffffff1660e060020a028152600401602060405180830381600087803b158015612b3e57600080fd5b505af1158015612b52573d6000803e3d6000fd5b505050506040513d6020811015612b6857600080fd5b50519050600160a060020a0381161515612b8157612c13565b80600160a060020a0316633af32abf846040518263ffffffff1660e060020a0281526004018082600160a060020a0316600160a060020a03168152602001915050602060405180830381600087803b158015612bdc57600080fd5b505af1158015612bf0573d6000803e3d6000fd5b505050506040513d6020811015612c0657600080fd5b50511515612c1357600080fd5b50505050565b604080517fdd62ed3e000000000000000000000000000000000000000000000000000000008152306004820152600160a060020a0384811660248301529151839286169163dd62ed3e9160448083019260209291908290030181600087803b158015612c8457600080fd5b505af1158015612c98573d6000803e3d6000fd5b505050506040513d6020811015612cae57600080fd5b505110612cba57612e4e565b604080517fdd62ed3e000000000000000000000000000000000000000000000000000000008152306004820152600160a060020a03848116602483015291519185169163dd62ed3e916044808201926020929091908290030181600087803b158015612d2557600080fd5b505af1158015612d39573d6000803e3d6000fd5b505050506040513d6020811015612d4f57600080fd5b505115612dd757604080517f095ea7b3000000000000000000000000000000000000000000000000000000008152600160a060020a03848116600483015260006024830181905292519086169263095ea7b3926044808201939182900301818387803b158015612dbe57600080fd5b505af1158015612dd2573d6000803e3d6000fd5b505050505b82600160a060020a031663095ea7b383836040518363ffffffff1660e060020a0281526004018083600160a060020a0316600160a060020a0316815260200182815260200192505050600060405180830381600087803b158015612e3a57600080fd5b505af115801561251e573d6000803e3d6000fd5b505050565b6003546040805160e260020a632ecd14d30281527f4e6f6e5374616e64617264546f6b656e526567697374727900000000000000006004820152905160009283928392600160a060020a039092169163bb34534c9160248082019260209290919082900301818787803b158015612ec957600080fd5b505af1158015612edd573d6000803e3d6000fd5b505050506040513d6020811015612ef357600080fd5b5051604080517faeea10bd000000000000000000000000000000000000000000000000000000008152600160a060020a03898116600483015291519295509085169163aeea10bd916024808201926020929091908290030181600087803b158015612f5d57600080fd5b505af1158015612f71573d6000803e3d6000fd5b505050506040513d6020811015612f8757600080fd5b5051156131325785600160a060020a03166370a08231866040518263ffffffff1660e060020a0281526004018082600160a060020a0316600160a060020a03168152602001915050602060405180830381600087803b158015612fe957600080fd5b505af1158015612ffd573d6000803e3d6000fd5b505050506040513d602081101561301357600080fd5b5051604080517fa9059cbb000000000000000000000000000000000000000000000000000000008152600160a060020a0388811660048301526024820188905291519294509088169163a9059cbb9160448082019260009290919082900301818387803b15801561308357600080fd5b505af1158015613097573d6000803e3d6000fd5b5050505085600160a060020a03166370a08231866040518263ffffffff1660e060020a0281526004018082600160a060020a0316600160a060020a03168152602001915050602060405180830381600087803b1580156130f657600080fd5b505af115801561310a573d6000803e3d6000fd5b505050506040513d602081101561312057600080fd5b5051905081811161312d57fe5b6131c9565b85600160a060020a031663a9059cbb86866040518363ffffffff1660e060020a0281526004018083600160a060020a0316600160a060020a0316815260200182815260200192505050602060405180830381600087803b15801561319557600080fd5b505af11580156131a9573d6000803e3d6000fd5b505050506040513d60208110156131bf57600080fd5b505115156131c957fe5b505050505050565b604080518082018252906002908290803883395091929150505600a165627a7a7230582063f397d618580da9541b709a956a4f1157a24a03955bbe1803451fe24dd7930f0029608060405234801561001057600080fd5b506040516020806100f2833981016040525160005560bf806100336000396000f300608060405260043610603e5763ffffffff7c01000000000000000000000000000000000000000000000000000000006000350416631e1401f881146043575b600080fd5b348015604e57600080fd5b50607773ffffffffffffffffffffffffffffffffffffffff600435811690602435166044356089565b60408051918252519081900360200190f35b60005493925050505600a165627a7a72305820ca098f87a166fb9e1886c432e850b35f66d5e561e1c3d1aad684bbebb1966ec20029608060405234801561001057600080fd5b5060405160408061010a83398101604052805160209091015160009190915560015560ca806100406000396000f300608060405260043610603e5763ffffffff7c01000000000000000000000000000000000000000000000000000000006000350416631e1401f881146043575b600080fd5b348015604e57600080fd5b50607773ffffffffffffffffffffffffffffffffffffffff600435811690602435166044356090565b6040805192835260208301919091528051918290030190f35b6000546001549350939150505600a165627a7a72305820daf03dc7f981045d000fb41d0aa4daac0e1f0052e359fee84d69d7cd500b79690029",
  "source": "pragma solidity ^0.4.24;\nimport '../BancorNetwork.sol';\n\ncontract OldBancorConverter {\n    uint256 private amount;\n\n    constructor(uint256 _amount) public {\n        amount = _amount;\n    }\n\n    function getReturn(IERC20Token _fromToken, IERC20Token _toToken, uint256 _amount) external view returns (uint256) {\n        _fromToken;\n        _toToken;\n        _amount;\n        return (amount);\n    }\n}\n\ncontract NewBancorConverter {\n    uint256 private amount;\n    uint256 private fee;\n\n    constructor(uint256 _amount, uint256 _fee) public {\n        amount = _amount;\n        fee = _fee;\n    }\n\n    function getReturn(IERC20Token _fromToken, IERC20Token _toToken, uint256 _amount) external view returns (uint256, uint256) {\n        _fromToken;\n        _toToken;\n        _amount;\n        return (amount, fee);\n    }\n}\n\ncontract TestBancorNetwork is BancorNetwork {\n    OldBancorConverter private oldBancorConverter;\n    NewBancorConverter private newBancorConverter;\n\n    constructor(uint256 _amount, uint256 _fee) public BancorNetwork(IContractRegistry(address(1))) {\n        oldBancorConverter = new OldBancorConverter(_amount);\n        newBancorConverter = new NewBancorConverter(_amount, _fee);\n    }\n\n    function getReturnOld() external view returns (uint256, uint256) {\n        return getReturn(address(oldBancorConverter), IERC20Token(0), IERC20Token(0), uint256(0));\n    }\n\n    function getReturnNew() external view returns (uint256, uint256) {\n        return getReturn(address(newBancorConverter), IERC20Token(0), IERC20Token(0), uint256(0));\n    }\n}\n",
  "sourcePath": "/Users/Nick/WebstormProjects/BancorOriginal/solidity/contracts/helpers/TestBancorNetwork.sol",
  "compiler": {
    "name": "solc",
    "version": "0.4.24+commit.e67f0147.Emscripten.clang"
  },
  "schemaVersion": "3.0.16",
  "updatedAt": "2019-12-04T00:14:08.323Z",
  "devdoc": {
    "methods": {
      "acceptOwnership()": {
        "details": "used by a new owner to accept an ownership transfer"
      },
      "claimAndConvert(address[],uint256,uint256)": {
        "details": "claims the caller's tokens, converts them to any other token in the bancor network by following a predefined conversion path and transfers the result tokens back to the sender note that allowance must be set beforehand",
        "params": {
          "_amount": "amount to convert from (in the initial source token)",
          "_minReturn": "if the conversion results in an amount smaller than the minimum return - it is cancelled, must be nonzero",
          "_path": "conversion path, see conversion path format above"
        },
        "return": "tokens issued in return"
      },
      "claimAndConvertFor(address[],uint256,uint256,address)": {
        "details": "claims the caller's tokens, converts them to any other token in the bancor network by following a predefined conversion path and transfers the result tokens to a target account note that allowance must be set beforehand",
        "params": {
          "_amount": "amount to convert from (in the initial source token)",
          "_for": "account that will receive the conversion result",
          "_minReturn": "if the conversion results in an amount smaller than the minimum return - it is cancelled, must be nonzero",
          "_path": "conversion path, see conversion path format above"
        },
        "return": "tokens issued in return"
      },
      "convert(address[],uint256,uint256)": {
        "details": "converts the token to any other token in the bancor network by following a predefined conversion path and transfers the result tokens back to the sender note that the converter should already own the source tokens",
        "params": {
          "_amount": "amount to convert from (in the initial source token)",
          "_minReturn": "if the conversion results in an amount smaller than the minimum return - it is cancelled, must be nonzero",
          "_path": "conversion path, see conversion path format above"
        },
        "return": "tokens issued in return"
      },
      "convertFor(address[],uint256,uint256,address)": {
        "details": "converts the token to any other token in the bancor network by following a predefined conversion path and transfers the result tokens to a target account note that the converter should already own the source tokens",
        "params": {
          "_amount": "amount to convert from (in the initial source token)",
          "_for": "account that will receive the conversion result",
          "_minReturn": "if the conversion results in an amount smaller than the minimum return - it is cancelled, must be nonzero",
          "_path": "conversion path, see conversion path format above"
        },
        "return": "tokens issued in return"
      },
      "convertForPrioritized3(address[],uint256,uint256,address,uint256,uint256,uint8,bytes32,bytes32)": {
        "details": "converts the token to any other token in the bancor network by following a predefined conversion path and transfers the result tokens to a target account. this version of the function also allows the verified signer to bypass the universal gas price limit. note that the converter should already own the source tokens",
        "params": {
          "_amount": "amount to convert from (in the initial source token)",
          "_block": "if the current block exceeded the given parameter - it is cancelled",
          "_customVal": "custom value that was signed for prioritized conversion",
          "_for": "account that will receive the conversion result",
          "_minReturn": "if the conversion results in an amount smaller than the minimum return - it is cancelled, must be nonzero",
          "_path": "conversion path, see conversion path format above",
          "_r": "(signature[0:64]) associated with the signer address and helps to validate if the signature is legit",
          "_s": "(signature[64:128]) associated with the signer address and helps to validate if the signature is legit",
          "_v": "(signature[128:130]) associated with the signer address and helps to validate if the signature is legit"
        },
        "return": "tokens issued in return"
      },
      "getReturnByPath(address[],uint256)": {
        "details": "returns the expected return amount for converting a specific amount by following a given conversion path. notice that there is no support for circular paths.",
        "params": {
          "_amount": "amount to convert from (in the initial source token)",
          "_path": "conversion path, see conversion path format above"
        },
        "return": "expected conversion return amount and conversion fee"
      },
      "registerEtherToken(address,bool)": {
        "details": "allows the owner to register/unregister ether tokens",
        "params": {
          "_register": "true to register, false to unregister",
          "_token": "ether token contract address"
        }
      },
      "transferOwnership(address)": {
        "details": "allows transferring the contract ownership the new owner still needs to accept the transfer can only be called by the contract owner",
        "params": {
          "_newOwner": "new contract owner"
        }
      },
      "withdrawTokens(address,address,uint256)": {
        "details": "withdraws tokens held by the contract and sends them to an account can only be called by the owner",
        "params": {
          "_amount": "amount to withdraw",
          "_to": "account to receive the new amount",
          "_token": "ERC20 token contract address"
        }
      },
      "xConvert(address[],uint256,uint256,bytes32,bytes32,uint256)": {
        "details": "converts any other token to BNT in the bancor network by following a predefined conversion path and transfers the resulting tokens to BancorX. note that the network should already have been given allowance of the source token (if not ETH)",
        "params": {
          "_amount": "amount to convert from (in the initial source token)",
          "_conversionId": "pre-determined unique (if non zero) id which refers to this transaction ",
          "_minReturn": "if the conversion results in an amount smaller than the minimum return - it is cancelled, must be nonzero",
          "_path": "conversion path, see conversion path format above",
          "_to": "address/account on _toBlockchain to send the BNT to",
          "_toBlockchain": "blockchain BNT will be issued on"
        },
        "return": "the amount of BNT received from this conversion"
      },
      "xConvertPrioritized(address[],uint256,uint256,bytes32,bytes32,uint256,uint256,uint8,bytes32,bytes32)": {
        "details": "converts any other token to BNT in the bancor network by following a predefined conversion path and transfers the resulting tokens to BancorX. this version of the function also allows the verified signer to bypass the universal gas price limit. note that the network should already have been given allowance of the source token (if not ETH)",
        "params": {
          "_amount": "amount to convert from (in the initial source token)",
          "_block": "if the current block exceeded the given parameter - it is cancelled",
          "_conversionId": "pre-determined unique (if non zero) id which refers to this transaction ",
          "_minReturn": "if the conversion results in an amount smaller than the minimum return - it is cancelled, must be nonzero",
          "_path": "conversion path, see conversion path format above",
          "_r": "(signature[0:64]) associated with the signer address and helps to validate if the signature is legit",
          "_s": "(signature[64:128]) associated with the signer address and helps to validate if the signature is legit",
          "_to": "address/account on _toBlockchain to send the BNT to",
          "_toBlockchain": "blockchain BNT will be issued on",
          "_v": "(signature[128:130]) associated with the signer address and helps to validate if the signature is legit"
        },
        "return": "the amount of BNT received from this conversion"
      }
    }
  },
  "userdoc": {
    "methods": {}
  }
}