{
  "contractName": "TokenHolder",
  "abi": [
    {
      "constant": false,
      "inputs": [],
      "name": "acceptOwnership",
      "outputs": [],
      "payable": false,
      "stateMutability": "nonpayable",
      "type": "function"
    },
    {
      "constant": true,
      "inputs": [],
      "name": "owner",
      "outputs": [
        {
          "name": "",
          "type": "address"
        }
      ],
      "payable": false,
      "stateMutability": "view",
      "type": "function"
    },
    {
      "constant": true,
      "inputs": [],
      "name": "newOwner",
      "outputs": [
        {
          "name": "",
          "type": "address"
        }
      ],
      "payable": false,
      "stateMutability": "view",
      "type": "function"
    },
    {
      "constant": false,
      "inputs": [
        {
          "name": "_newOwner",
          "type": "address"
        }
      ],
      "name": "transferOwnership",
      "outputs": [],
      "payable": false,
      "stateMutability": "nonpayable",
      "type": "function"
    },
    {
      "inputs": [],
      "payable": false,
      "stateMutability": "nonpayable",
      "type": "constructor"
    },
    {
      "anonymous": false,
      "inputs": [
        {
          "indexed": true,
          "name": "_prevOwner",
          "type": "address"
        },
        {
          "indexed": true,
          "name": "_newOwner",
          "type": "address"
        }
      ],
      "name": "OwnerUpdate",
      "type": "event"
    },
    {
      "constant": false,
      "inputs": [
        {
          "name": "_token",
          "type": "address"
        },
        {
          "name": "_to",
          "type": "address"
        },
        {
          "name": "_amount",
          "type": "uint256"
        }
      ],
      "name": "withdrawTokens",
      "outputs": [],
      "payable": false,
      "stateMutability": "nonpayable",
      "type": "function"
    }
  ],
  "bytecode": "0x608060405234801561001057600080fd5b5060008054600160a060020a03191633179055610342806100326000396000f30060806040526004361061006c5763ffffffff7c01000000000000000000000000000000000000000000000000000000006000350416635e35359e811461007157806379ba50971461009d5780638da5cb5b146100b2578063d4ee1d90146100e3578063f2fde38b146100f8575b600080fd5b34801561007d57600080fd5b5061009b600160a060020a0360043581169060243516604435610119565b005b3480156100a957600080fd5b5061009b61020f565b3480156100be57600080fd5b506100c7610297565b60408051600160a060020a039092168252519081900360200190f35b3480156100ef57600080fd5b506100c76102a6565b34801561010457600080fd5b5061009b600160a060020a03600435166102b5565b600054600160a060020a0316331461013057600080fd5b82600160a060020a038116151561014657600080fd5b82600160a060020a038116151561015c57600080fd5b83600160a060020a03811630141561017357600080fd5b85600160a060020a031663a9059cbb86866040518363ffffffff167c01000000000000000000000000000000000000000000000000000000000281526004018083600160a060020a0316600160a060020a0316815260200182815260200192505050600060405180830381600087803b1580156101ef57600080fd5b505af1158015610203573d6000803e3d6000fd5b50505050505050505050565b600154600160a060020a0316331461022657600080fd5b60015460008054604051600160a060020a0393841693909116917f343765429aea5a34b3ff6a3785a98a5abb2597aca87bfbb58632c173d585373a91a3600180546000805473ffffffffffffffffffffffffffffffffffffffff19908116600160a060020a03841617909155169055565b600054600160a060020a031681565b600154600160a060020a031681565b600054600160a060020a031633146102cc57600080fd5b600054600160a060020a03828116911614156102e757600080fd5b6001805473ffffffffffffffffffffffffffffffffffffffff1916600160a060020a03929092169190911790555600a165627a7a723058203fb59a107ced07f51bd72878a0b4f4e7f8f3fe20f1c2c1962c09bf1b7add50b50029",
  "source": "pragma solidity ^0.4.24;\nimport './Owned.sol';\nimport './Utils.sol';\nimport './interfaces/ITokenHolder.sol';\nimport '../token/interfaces/INonStandardERC20.sol';\nimport '../token/interfaces/IERC20Token.sol';\n\n/*\n    We consider every contract to be a 'token holder' since it's currently not possible\n    for a contract to deny receiving tokens.\n\n    The TokenHolder's contract sole purpose is to provide a safety mechanism that allows\n    the owner to send tokens that were sent to the contract by mistake back to their sender.\n\n    Note that we use the non standard ERC-20 interface which has no return value for transfer\n    in order to support both non standard as well as standard token contracts.\n    see https://github.com/ethereum/solidity/issues/4116\n*/\ncontract TokenHolder is ITokenHolder, Owned, Utils {\n    /**\n        @dev constructor\n    */\n    constructor() public {\n    }\n\n    /**\n        @dev withdraws tokens held by the contract and sends them to an account\n        can only be called by the owner\n\n        @param _token   ERC20 token contract address\n        @param _to      account to receive the new amount\n        @param _amount  amount to withdraw\n    */\n    function withdrawTokens(IERC20Token _token, address _to, uint256 _amount)\n        public\n        ownerOnly\n        validAddress(_token)\n        validAddress(_to)\n        notThis(_to)\n    {\n        INonStandardERC20(_token).transfer(_to, _amount);\n    }\n}\n",
  "sourcePath": "/Users/Nick/WebstormProjects/BancorOriginal/solidity/contracts/utility/TokenHolder.sol",
  "compiler": {
    "name": "solc",
    "version": "0.4.24+commit.e67f0147.Emscripten.clang"
  },
  "schemaVersion": "3.0.16",
  "updatedAt": "2019-12-04T00:14:08.417Z",
  "devdoc": {
    "methods": {
      "acceptOwnership()": {
        "details": "used by a new owner to accept an ownership transfer"
      },
      "transferOwnership(address)": {
        "details": "allows transferring the contract ownership the new owner still needs to accept the transfer can only be called by the contract owner",
        "params": {
          "_newOwner": "new contract owner"
        }
      },
      "withdrawTokens(address,address,uint256)": {
        "details": "withdraws tokens held by the contract and sends them to an account can only be called by the owner",
        "params": {
          "_amount": "amount to withdraw",
          "_to": "account to receive the new amount",
          "_token": "ERC20 token contract address"
        }
      }
    }
  },
  "userdoc": {
    "methods": {}
  }
}